:0300000002273E96
:0C273E00787FE4F6D8FD75812102278524
:101CC20053205020412043204500412054205420DD
:101CD200412043204B005374633820416372616496
:101CE200650054696E7920417263616465002D2D2F
:101CF2002D2D2D2D2D2D2D2D2D2D2D2D2D2D004725
:101D02002041204D204520204F20562045205200C2
:101D120053434F52453A00484947482053434F5294
:101D2200453A00204E455720484947482053434FE3
:101D3200524520002D2D2D2D2D2D2D2D2D2D2D2DCE
:101D42002D2D00204C204520562045204C200000FF
:101D52000000000000000808080808000060600099
:101D620000003C4030403C003E5149453E000042AC
:101D72007F4000004261514946002141454B3100FC
:101D82001814127F10002745454539003C4A49493D
:101D920030000171090503003649494936000649F8
:101DA20049291E000036360000007C1211127C0008
:101DB2007F49494936003E41414122007F4141224B
:101DC2001C007F49494941007F09090901003E4140
:101DD20049497A007F0808087F0000417F410000DE
:101DE2002040413F01007F08142241007F404040D3
:101DF20040007F020C027F007F0408107F003E41FA
:101E020041413E007F09090906003E4151215E0021
:101E12007F091929460046494949310001017F01DC
:101E220001003F4040403F001F2040201F003F4034
:101E320038403F002054545478007F4844443800CE
:101E4200384444442000384444487F0038545454B1
:101E52001800087E0901020018A4A4A47C007F08CF
:101E62000404780000447D4000004080847D00002E
:101E72007F102844000000417F4000007C041804C9
:101E820078007C0804047800384444443800FC2478
:101E92002424180018242418FC007C0804040800D8
:101EA200485454542000043F444020003C40402009
:101EB2007C001C2040201C003C4030403C00442858
:101EC200102844001CA0A0A07C00324959513E00B9
:091ED20000000000000000000007
:1027CA0044003E00000000440007000000004200F0
:1027DA002D0000420035000142003B000042004E3D
:1027EA000000420051000842004400004100460136
:1027FA00420048000042002B000042003900084213
:10280A000057000042008100084200850000420093
:10281A005300024200000000420002000041003D55
:10282A0000420029000042008300104100040041D8
:10283A0000470041005000420037000042005500A6
:01284A00008D
:08000300122C45121A0780FBC4
:032C45000224C79F
:101A0700122BE490008712149490008B1214A000FC
:101A1700000000E490008FF0900005F0A37460F0E0
:101A2700E4FF122ACB7BFF7A1C79C27D01E4FF1207
:101A370024047BFF7A1C79CC7D027F041224047B6B
:101A4700FF7A1C79D87D07E4FF1224047D017F55B6
:101A5700122B24122C387F017E0012226E12226B69
:101A67007F017E0012226E122C4E7D027F55122BB3
:101A770024122C3812226B7F027E0012226EE4FFA2
:101A8700FE12226E122C4E7D037F55122B24122C30
:101A970038E4FFFE12226EE4FFFE12226E7F017E03
:101AA7000012226EE4FFFE12226E7F017E001222D8
:101AB7006E122C4E12292512256D90008FE06003BF
:031AC700021CBF3F
:101ACA00A37470F0900090E0FFC394015003021BCE
:101ADA0059EF94204010EF9438500BE0FD7C007FC2
:101AEA00687E0012233B900090E0642070317D03F1
:101AFA007F64122B24122C38E4FFFE12226E122C61
:101B0A004E7D047F64122B24122C38E4FFFE12222D
:101B1A006E122C4E7D647C007F1E7E0012284C9033
:101B2A000090E0FFE4FD122B24122C387F037E0084
:101B3A0012226EE4FFFE12226E122C4E1229257F0B
:101B4A00147E00122A81900090E014F0021ACEE46A
:101B5A00FDFF122B24122C38E4FFFE12226EE4FF42
:101B6A00FE12226E122C4E7BFF7A1C79E47D07E46A
:101B7A00FF1224047FDC7E05122A811224C7E4FFA7
:101B8A00122ACBE4900004F0900037F0A3F0120080
:101B9A000E900029E0FFA3E0900055CFF0A3EFF0EC
:101BAA00E4FF122ACB7BFF7A1C79F07D017F0B12AE
:101BBA0024047BFF7A1D79017D027F0B1224047BAA
:101BCA00FF7A1C79F07D037F0B1224047BFF7A1DB8
:101BDA0079127D057F25122404900037E0FAA3E0EC
:101BEA00FB7D057C007F4B7E00122998900050E017
:101BFA0070147BFF7A1D79197D077F151224047DE5
:101C0A00077F5812298CE4900091F0A3F09000917C
:101C1A00E0FCA3E0FDC394E8EC6480948350177F52
:101C2A00327E0012284C900092E02432F09000910B
:101C3A00E03400F080D77FD07E07122A81900050CE
:101C4A00E06072E4FF122ACB7BFF7A1C79F07D01F7
:101C5A007F0A1224047BFF7A1D79257D037F0A12ED
:101C6A0024047BFF7A1C79F07D077F0A1224047D05
:101C7A00057F3212298C9000917402F0A374BCF093
:101C8A00900091E0FCA3E0FDD394C8EC64809480BA
:101C9A0040177F1E7E0012284C900092E024CEF05E
:101CAA00900091E034FFF080D7E4900050F07F8CF0
:051CBA007E0A122A81E0
:031CBF00022C51A3
:0C298C00900055E0FAA3E0FB7C007E0008
:102998009000A6EEF0A3EFF0A3ECF0A3EDF0A3EA0D
:0429A800F0A3EBF0BD
:1029AC0078AC7C007D017BFF7A1E79D17E007F0A9A
:1029BC001213469000AAE0FEA3E0FF7B017A007997
:1029CC00AC9000BB740AF0122B729000A6A3E0FF2F
:0D29DC00A3A3E0FD7B017A0079AC02240486
:10000E0090003E1214A000000000900035E4F0A312
:10001E0004F0E4900029F0A3F0900037F0A3F0FF75
:10002E00EF75F006A4240BF582E43400F583E4F0BA
:10003E00A3F00FEFB405E91228BA7F017E0012205B
:0A004E007A900004E06003020CB198
:10005800900007E0FCA3E0FDA3E0FEA3E0FFE4FAC4
:10006800F9F8EF2401FFEA3EFEE93DFDE83CFC908B
:10007800000712149490003EE0FCA3E0FDA3E0FE0C
:10008800A3E0FFE4F8EF2401FFEA3EFEE93DFDE8C6
:100098003CFC90003E12149490002EE004F0700690
:1000A80090002DE004F0122BE49000931214947D3C
:1000B800E87C03E4FFFE122AF8C3EF94ACEE6480F8
:1000C8009483500690003D7401F020B00890003DE4
:1000D8007401F08005E490003DF020CD2F9000835E
:1000E800E0FEA3E0FFC3747F9FFFE49EFEC3900081
:1000F80006E09FEE6480F8900005E0648098500C5C
:10010800A3E004F07006900005E004F020B11DD3D0
:10011800900006E09401900005E064809480400C13
:10012800A3E024FFF0900005E034FFF090004EE0DB
:100138007002A3E070367DE87C03FFFE122AF8D334
:10014800EF94E6EE648094834022D3900049E094D3
:1001580000900048E064809480401190004EE4F0E4
:10016800A304F090003BE4F0A3746FF0E4900098CF
:10017800F0A3F0900053E0FEA3E0FF900098E0FCAD
:10018800A3E0FDD39FEE6480F8EC648098400302FE
:02019800036200
:10019A00900044A3E075F008A4FF900048A3E0FE95
:1001AA00ED2EFD122B24122C3890002BE0FFA3E039
:1001BA0090009ECFF0A3EFF0900039E0FEA3E0FF9D
:1001CA0090009EE0FCA3E0FDD39FEE6480F8EC640F
:1001DA008098400302034E900098E0FEA3E0FF904F
:1001EA00005975F00A1214D1EE75F00AA42583F5A8
:1001FA0083E5822DF582E5833CF583E064016003A3
:10020A00020337900053E0FCA3E0FDEF6D7002EEAD
:10021A006C600302031C7DE87C03FFFE122AF8903F
:10022A000035E0FCA3E0FDC374E79DFD74039CFC6C
:10023A00D3EF9DEC6480F8EE648098500302031CAF
:10024A00E49000A0F09000A0E075F006A4240BF55D
:10025A0082E43400F583E0FEA3E064014E700A9064
:10026A0000A0E004F0E0B405DC9000A0E0FDC39437
:10027A0005400302031CE0FC75F006A4240BF5827A
:10028A00E43400F583E4F0A304F090002BE0FEA32D
:10029A00E0FFC390009FE09FFF90009EE09EFEEF6C
:1002AA007803C333CE33CED8F9FBAA06900044E0D4
:1002BA00FEA3E07803C333CE33CED8F92BFFEE3A50
:1002CA00CF2404CF3400FEEC75F006A4240DF58289
:1002DA00E43400F583EEF0A3EFF0900048E0FEA3CB
:1002EA00E0FF900099E02FFF900098E03ECF2401B4
:1002FA00CF3400FEEF7803C333CE33CED8F9FFED07
:10030A0075F006A4240FF582E43400F583EEF0A319
:02031A00EFF002
:10031C00900098E0FEA3E0FF4E6006EF64024E7082
:10032C00047F0180027F027E008003E4FFFE122224
:10033C006E90009FE004F0700690009EE004F002C6
:05034C0001C2122C4E5D
:10035100900099E004F07006900098E004F002012A
:100361007B900037E0FAA3E0FB7D067C00E4FFFE12
:1003710012299890002BE0FEA3E0FFC390003AE021
:100381009FFF900039E09EFEC374089F90009BF090
:10039100E49E90009AF0E490009CF0A3F090009A03
:1003A100E0FEA3E0FFC390009DE09FEE6480F89023
:1003B100009CE0648098501312292590009DE02450
:1003C10002F090009CE03400F080D2C390002EE057
:1003D100940390002DE064809480405EE4F0A3F0EB
:1003E10090004EE07002A3E0605090003BA3E0FF5C
:1003F100E4FD122B24122C387F037E0012226EE4BE
:10040100FFFE12226E122C4E90003CE024FFF09071
:10041100003BE034FFF0E0FEA3E0FF4E701C9000D3
:100421004EF0A3F0FD122B24122C38E4FFFE122211
:100431006EE4FFFE12226E122C4E900035E0FEA3F8
:10044100E0FF7C007D051213C4C374619FFFE49E2D
:10045100FE3395E0FDFC900007E0F8A3E0F9A3E08E
:10046100FAA3E0FBC31214465003020515900007DE
:100471001214A000000000900046E0605D90002B87
:10048100E0FEA3E0FFC390003AE09FFF900039E057
:100491009EFEC3E49FFFE49EFEEF240EFFE43EFEBA
:1004A100C3900045E09FEE6480F8900044E06480D2
:1004B100984017E49000461226A5900049E004F008
:1004C100704F900048E004F08047900045E004F050
:1004D100703F900044E004F08037D3900045E094F1
:1004E10000900044E06480948050189000467401AC
:1004F1001226A5900049E004F07016900048E0042F
:10050100F0800E900045E024FFF0900044E034FFBD
:10051100F01226A690003DE0B4013990002FE07062
:1005210002A3E0702F90002FF0A304F0900083E06D
:10053100FEA3E0FF7C007D021213D6900006E02F9F
:10054100FF900005E03E900031F0A3EFF0A3E4F04E
:10055100A37438F0E47F02FEFDFC90003EE0F8A3B6
:10056100E0F9A3E0FAA3E0FBC31214465003020B27
:10057100B190003E1214A00000000090002FE07026
:1005810004A3E06401704C900031E0FEA3E0FFA3FE
:10059100E0FCA3E0FD12233B900033E07002A3E0F6
:1005A1007023900031A3E0FFE4FD122B24122C38BC
:1005B100E4FF122C08122C4EE490002FF0A3F090CF
:1005C100003DF0800E900034E024FFF0900033E015
:1005D10034FFF0900044E0FEA3E07803C333CE3350
:1005E100CED8F9FF900042EEF0A3EFF090003DE08D
:1005F10064016003020A91C3900032E09FFF900002
:1006010031E09EFE7C007D081213D6AC06AD07ECEE
:10061100120DEB12217BC004C005C006C00790007B
:100621002BE0FCA3E0FDEC120DEBD003D002D001D6
:10063100D000120CF5120E2490004AEEF0A3EFF058
:10064100900033E0FEA3E0FF7C007D081213D6ACDE
:1006510006AD07EC120DEB12217BC004C005C006EC
:10066100C007900048E0FCA3E0FDEC120DEBA804EC
:10067100A905AA06AB07D007D006D005D004120CF5
:10068100F112217B120E2490004CEEF0A3EFF0A3A7
:10069100E07004A3E0640160030207C590003BE041
:1006A100FEA3E0FF900031E0FCA3E0FDC39FEE64F8
:1006B10080F8EC64809850030207C5EF2408FFE43A
:1006C1003EFED3ED9FEE6480F8EC64809840030217
:1006D10007C5900034E09408900033E06480948072
:0506E10040030207C503
:1006E6007D647C007F017E00122AF8EE3395E0FDE2
:1006F600FC90009E121494E47F1EFEFDFC90009E6A
:10070600E0F8A3E0F9A3E0FAA3E0FBC31214465015
:1007160008900038E024328042E47F3CFEFDFC90E5
:10072600009EE0F8A3E0F9A3E0FAA3E0FBC31214ED
:10073600465008900038E024648020E47F5AFEFD8D
:10074600FC90009EE0F8A3E0F9A3E0FAA3E0FBC367
:10075600121446900038E0500C2496F0900037E0D2
:100766003400F0800A242CF0900037E03401F07D4C
:10077600907C017F1E7E0012284C7D2C7C017F1E02
:100786007E0012284C7DC87C007F1E7E0012284CFD
:100796007D647C007F1E7E0012284CE490004EF0A3
:1007A600A3F090003BA3E0FFE4FD122B24122C38AB
:0F07B600E4FFFE12226EE4FFFE12226E122C4EA2
:1007C500900042E0FEA3E0FFC3900032E09FEE649C
:1007D50080F8900031E06480985003020A919000FF
:1007E5004CE0FEA3E0FFEE648094805003020A9182
:1007F500900053E0FCA3E0FDD3EF9DEC6480F8EEA0
:100805006480984003020A9190004AE0FEA3E0FF4D
:10081500C3EE648094805003020A91EF9409EE645C
:100825008094804003020A91A3E0FAA3E0FB9000C4
:100835005975F00A1214D1EA75F00AA42583F583D7
:10084500E5822FF582E5833EF583E06401600302CE
:020855000A9106
:100857009000A0ECF0A3EDF0EB64024A700E90005C
:1008670003E004F07006900002E004F0EB64014A34
:10087700700E900001E004F07006900000E004F0B4
:10088700900002E0FEA3E0FF64054E70079000535E
:10089700F0A304F0900000E07004A3E06404700C7F
:1008A700EF64054E7006900053F0A3F090004CE003
:1008B700FAA3E0FBC374039BFFE49AFE7C007D0A66
:1008C7001213C4900038E02FF0900037E03EF0900C
:1008D7000086E004F07006900085E004F090003197
:1008E700A3E0FF900048A3E02B04FD122B24122C59
:1008F70038E4FF122C08122C4E7D647C007F1E7E8C
:100907000012284CE490003DF090002FF0A3F0A3D4
:10091700F0A3F0A3F0A37407F090004AE0FEA3E071
:10092700FFA3E0FCA3E090005975F00A1214D1EC84
:1009370075F00AA42583F583E5822FF582E5833ECA
:10094700F583E4F090002BE0FCA3E0FDEF6D70026F
:10095700EE6C60030209EF900039E0FFA3E090001E
:100967009ECFF0A3EFF090002BE0FEA3E0FF9000F6
:100977009EE0FCA3E0FDC39FEE6480F8EC648098E2
:10098700404474592DF58274003CF583E06401609E
:100997001D74632DF58274003CF583E06401600EDD
:1009A700746D2DF58274003CF583E0B40108900066
:1009B70057ECF0A3EDF090009FE024FFF090009E2D
:1009C700E034FFF080A0900057E0FCA3E0FDC39F58
:1009D700FFEC9EFE900045E02FF0900044E03EF0D3
:1009E70090002BECF0A3EDF0900039E0FEA3E0FFC0
:1009F70090004AE06E7003A3E06F6003020A8490E0
:100A0700002BE0FFA3E090009ECFF0A3EFF0900053
:100A170039E0FEA3E0FF90009EE0FCA3E0FDD39F3A
:100A2700EE6480F8EC648098504474592DF5827414
:100A3700003CF583E06401601D74632DF58274004A
:100A47003CF583E06401600E746D2DF58274003C03
:100A5700F583E0B40108900081ECF0A3EDF090007D
:100A67009FE004F070A890009EE004F080A0900042
:100A770081E0FFA3E0900039CFF0A3EFF0900048AA
:0A0A8700E0FEA3E09000A01226B0EC
:100A9100E4900097F0900097E0FFC39405400302B3
:100AA1000BB1EF75F006A4240BF582E43400F58355
:100AB100E0FEA3E064014E6003020BA8900097E002
:100AC100FD75F006A4240DF582E43400F583E0FE03
:100AD100A3E0FFED75F006A4240FF582E43400F5E0
:100AE10083E0FCA3E0FD12233B900097E0FF75F04B
:100AF10006A4240FF582E43400F583E475F00112B5
:100B0100140CEF75F006A4240FF582E43400F5838C
:100B1100E0FEA3E0C39438EE648094805003020B9E
:100B2100A8900097E075F006A4240DF582E4340046
:100B3100F583A3E0FF7D07122B24122C38E4FF126A
:100B41002C08122C4E900097E0FF75F006A4240BA0
:100B5100F582E43400F583E4F0A3F0EF75F006A428
:100B6100240DF582E43400F583E0FEA3E0FF90005C
:100B710005E0FCA3E0FDD3EF9DEC6480F8EE64801A
:100B8100984024900083E0FAA3E0FBED2BFDEC3AC2
:100B9100FCC3EF9DEC6480F8EE64809850099000EE
:100BA100047401F0020CB1900097E004F0020A967F
:0C0BB100900085E07004A3E0640E7072F8
:100BBD0090009EF0A3F090009EE0FEA3E0FFD39482
:100BCD0005EE64809480502790000B75F006EF12AF
:100BDD0014D1EE75F006A42583F583E4F0A3F0900F
:100BED00009FE004F070CF90009EE004F080C7906D
:100BFD000036E004F07006900035E004F0D390006C
:100C0D0036E0940F900035E0648094804006E4F067
:100C1D00A3740FF0900035E0FEA3E0FF12207A12CE
:020C2D0028BAE3
:100C2F00900048E0FEA3E0FF64054E700C90005367
:100C3F00E07004A3E06402602EEF64064E700C9027
:100C4F000053E07004A3E06401601C900048E07062
:100C5F0004A3E06407700A900053E07002A3E06001
:100C6F0006900004E060099000047401F002004F48
:100C7F00122925122BE4900093E0F8A3E0F9A3E0EA
:100C8F00FAA3E0FBC3EF9BFFEE9AFEED99FDEC9804
:100C9F00FCE47B07FAF9F8D312145C5003020058F6
:020CAF0080D1F2
:100CB100E4900029F0A3F0E07F00FE900029F0A36A
:100CC100EFF0900029EEF0A3EFF0900037E0FCA3E5
:100CD100E0FDD39FEE6480F8EC648098400E9000B4
:0C0CE10029ECF0A3EDF09000507401F03D
:010CED0022E4
:10292500900005A3E0FF7D07122B24122C38E4FF4D
:10293500122C08E4FF122C08E49000A2F07FC012CC
:102945002C089000A2E004F0E0C3940540EFE49069
:1029550000A2F07FF0122C089000A2E004F0E0C382
:10296500940440EFE49000A2F07FC0122C08900080
:10297500A2E004F0E0C3940540EFE4FF122C08E464
:07298500FF122C08022C4E8A
:03226B00E4FFFE8F
:10226E009000AAEEF0A3EFF064014E70287F981252
:10227E002C087F5C122C087FB6122C087F5F122C64
:10228E00087F5F122C087FB6122C087F5C122C0878
:10229E007F980223379000AAE07004A3E0640270D6
:1022AE00277F30122C087F3E122C087FB3122C0889
:1022BE007F5D122C087F5D122C087FB3122C087FD5
:1022CE003E122C087F3080619000AAE07004A3E0DB
:1022DE00640370277F18122C087F38122C087F3465
:1022EE00122C087F34122C087F34122C087F3412E3
:1022FE002C087F38122C087F18802E9000AAE070D0
:10230E0002A3E07027FF122C08E4FF122C08E4FF52
:10231E00122C08E4FF122C08E4FF122C08E4FF1222
:0D232E002C08E4FF122C08E4FF122C0822FA
:08207A009000A2EEF0A3EFF0CC
:10208200E490003DF090002FF0A3F09000071214AE
:10209200A00000000090003E1214A000000000E426
:1020A20090002DF0A3F090002BF0A3F0900039F0F7
:1020B200A37408F0E4900057F0A3F0900081F0A31D
:1020C2007408F0900053E4F0A37402F0E49000006E
:1020D200F0A3F0A3F0A3F0900085F0A3F090004EDF
:1020E200F0A3F0900048F0A3F0900044F0A3F0A316
:1020F20004F0900005E4F0A37440F0E4FF122ACB50
:102102007BFF7A1D79367D037F101224047BFF7AD0
:102112001D79457D047F101224047BFF7A1D7936D8
:102122007D057F101224049000A2E0FAA3E0FB7D5B
:10213200047C007F557E001229989000A47403F05D
:10214200A37420F09000A4E0FCA3E0FDD394C8ECBB
:102152006480948040177F1E7E0012284C9000A558
:10216200E02438F09000A4E034FFF080D77FBC7EFA
:0921720002122A81E4FF022ACBCB
:10233B009000A2EEF0A3EFF0A3ECF0FEA3EDF0FF04
:10234B007C007D081213D6ED4C9000A47003022381
:10235B00DAE0FEA3E0FF7C007D081213D6AD0790F8
:10236B0000A2A3E0FF122B24122C389000A4E0FE55
:10237B00A3E0FF7C007D081213D69000AAEDF07F3E
:10238B00007E007D007C00122BC4122C4E9000A40A
:10239B00E0FEA3E0FF7C007D081213D6EF04FD9056
:1023AB0000A2A3E0FF122B24122C389000A4E0FE15
:1023BB00A3E0FF7C007D081213D6C374089D900028
:1023CB00AAF07F007E007D007C00122BB48026E0FB
:1023DB00FEA3E0FF7C007D081213D6AD079000A290
:1023EB00A3E0FF122B24122C38E49000AAF0FFFE7E
:0923FB00FDFC122BC4122C4E2231
:102BB400EF447EFF9000AAE0F9F812146D022C088D
:102BC400EF447EFF9000AAE0F9F8121481022C0869
:1026A500F0900048E0FEA3E0900053FFE0FCA3E0BB
:0126B500FD27
:1026B6009000A4ECF0A3EDF09000A2EEF0A3EFF0F2
:1026C6009000A8EEF0A3EFF09000A4E0FEA3E0FFD8
:1026D6009000A3E02FFF9000A2E03EFE9000A8E04D
:1026E600FCA3E0FDD39FEE6480F8EC64809850472D
:1026F600E4FF122B24122C38E49000A6F0A3F0E499
:10270600FFFE12226E9000A7E004F070069000A66D
:10271600E004F0C39000A7E094109000A6E0648067
:10272600948040DB122C4E9000A9E004F070999042
:0727360000A8E004F080910F
:01273D002279
:1028BA00E4FF74592FF582E43400F583E4F074637D
:1028CA002FF582E43400F583E4F0746D2FF582E489
:1028DA003400F583E4F00FEFB40AD7E4FFEFC394B2
:1028EA0009501E74592FF582E43400F5837401F0FF
:1028FA00746D2FF582E43400F5837401F00F0F80B4
:10290A00DC7F01EFC39409501174632FF582E4341C
:0A291A0000F5837401F00F0F80E94F
:012924002290
:101EDB0070726573732041207374617274002020DB
:101EEB0020202020202020202020200025640000FE
:101EFB0000000000000008080808080000606000EF
:101F0B0000003C4030403C003E5149453E00004201
:101F1B007F4000004261514946002141454B310051
:101F2B001814127F10002745454539003C4A494992
:101F3B00300001710905030036494949360006494D
:101F4B0049291E000036360000007C1211127C005D
:101F5B007F49494936003E41414122007F414122A0
:101F6B001C007F49494941007F09090901003E4195
:101F7B0049497A007F0808087F0000417F41000033
:101F8B002040413F01007F08142241007F40404028
:101F9B0040007F020C027F007F0408107F003E414F
:101FAB0041413E007F09090906003E4151215E0077
:101FBB007F091929460046494949310001017F0132
:101FCB0001003F4040403F001F2040201F003F408A
:101FDB0038403F002054545478007F484444380024
:101FEB00384444442000384444487F003854545407
:101FFB001800087E0901020018A4A4A47C007F0825
:10200B000404780000447D4000004080847D000083
:10201B007F102844000000417F4000007C0418041E
:10202B0078007C0804047800384444443800FC24CD
:10203B002424180018242418FC007C08040408002D
:10204B00485454542000043F444020003C4040205E
:10205B007C001C2040201C003C4030403C004428AD
:0F206B00102844001CA0A0A07C00324959513E0F
:10256D00803A20B003022609900093E0F8A3E0F929
:10257D00A3E0FAA3E0FB9000F7E0FCA3E0FDA3E0ED
:10258D00FEA3E0C39BFFEE9AFEED99FDEC98FCE4F3
:10259D007BD07A07F9F8C312145C50169000F7E05F
:1025AD00FCA3E0FDA3E0FEA3E0FF900093121494C2
:1025BD0080B0900093E0F8A3E0F9A3E0FAA3E0FB6C
:1025CD009000F7E0FCA3E0FDA3E0FEA3E0C39BFFBA
:1025DD00EE9AFEED99FDEC98FCE47BE87A03F9F8B0
:1025ED00C312145C7BFF50067A1E79DB80047A1EC1
:0C25FD0079E97D04E4FF12240402256F3C
:0126090022AE
:102B72009000BF74FFF0A3741EF0A374F7F0A3EEED
:072B8200F0A3EFF00215E9DA
:012C51002260
:0E284C009000A6EEF0A3EFF0A3ECF0A3EDF0E9
:10285A00E4FFFEC39000A7E09FEE6480F89000A614
:10286A00E06480984049D2CCE4FDFCD39000A9E012
:10287A009DEC6480F89000A8E0648098400900000C
:10288A000DBD00010C80E4C2CCE4FCFDD39000A98C
:10289A00E09DEC6480F89000A8E06480984009000C
:0F28AA00000DBD00010C80E40FBF00010E80A4E3
:0128B90022FC
:03000B00022A3690
:102A3600C0E0C0F0C083C082C0D075D000C000C066
:102A460004C005C006C0079000F7E0FCA3E0FDA3A4
:102A5600E0FEA3E02401FFE43EFEE43DFDE43CFC91
:102A66009000F7121494D007D006D005D004D000F9
:0B2A7600D0D0D082D083D0F0D0E0326E
:102B9F00438E805389F0758A40758CA2C28DD28C7A
:052BAF00D2A9D2AF2203
:0F2BE4009000F7E0FCA3E0FDA3E0FEA3E0FF22DA
:102AF8009000A2EEF0A3EFF0A3ECF0A3EDF0122902
:102B0800E99000A4E0FCA3E0FD1213D69000A2E037
:0C2B1800FEA3E0FFC3ED9FFFEC9EFE2239
:082A81009000A6EEF0A3EFF0B7
:102A8900122BE49000A81214949000A8E0F8A3E097
:102A9900F9A3E0FAA3E0FB9000F7E0FCA3E0FDA3B3
:102AA900E0FEA3E0C39BFBEE9AFAED99F9EC98F8E6
:102AB9009000A6E0FEA3E0FFE4FCFDC312145C4015
:012AC900C844
:012ACA0022E9
:0C2C0E0090FE82E030E6F9E054BFF022B6
:092C260090FE817401F0022C0EF5
:032C1A00122BF387
:092C1D0090FE817403F0022C0EFC
:092C2F0090FE817406F0022C0EE7
:0E2BF30090FE86EFF090FE817402F0022C0E30
:102B8900122C26122C1AAF05122C1AAF03122BF392
:062B9900122C1D022C2F7E
:1024C700E4F5B2F5B1F5CAF5C975BA8090FE807426
:1024D700C1F090FE82E4F0122B9F7FAE122BD4E462
:1024E700FF122BD47F10122BD47F40122BD47F8165
:1024F700122BD47FCF122BD47FA1122BD47FC812DB
:102507002BD47FA6122BD47FA8122BD47F3F122B5C
:10251700D47FD3122BD4E4FF122BD47FD5122BD424
:102527007F80122BD47FD9122BD47FF1122BD47F2B
:10253700DA122BD47F12122BD47FDB122BD47F40DD
:10254700122BD47F20122BD47F02122BD47F8D1213
:102557002BD47F14122BD47FA4122BD47FA6122B3B
:06256700D47FAF022BD46B
:032C4800022C2635
:032C4B00022C2F29
:072C0100AE07122C487F789A
:062C0800122BF3022C1D4B
:102BD400122C01E4FF122C08AF06122C08022C4B15
:082C3800122C037F40022C085E
:032C4E00022C4B0A
:102B2400122C01E4FF122C08ED24B0FF122C08EE45
:102B340054F0C4540F4410FF122C08EE540F4401F7
:072B4400FF122C08022C4BCC
:022ACB00AD0755
:102ACD00E4FCEC24B0FF122BD4E4FF122BD47F10C6
:102ADD00122BD4122C38E4FEAF05122C080EEEB4D6
:0A2AED0080F6122C4E0CECB408D851
:012AF70022BC
:102404009000B6EFF0A3EDF0A3EBF0A3EAF0A3E99C
:01241400F0D7
:10241500E49000BDF09000B8E0FBA3E0FAA3E0F97A
:102425009000BDE0F58275830012138570030224C8
:10243500C624E09000BBF0D394004004E024F4F0FF
:102445009000BBE0D3940F4004E024FAF09000BB69
:10245500E0D394284004E024F7F09000B6E0D3944C
:102465007E4006E4F0A3E004F09000B6E0FFA3E0B0
:10247500FD122B24122C38E49000BCF09000BCE037
:10248500FDC3940650289000BBE075F006A47C00BF
:102495002DFFEC35F0FE74FA2FF9741E3EFA7BFF22
:1024A500122C40122C089000BCE004F080CE122CB7
:1024B5004E9000B6E02406F09000BDE004F0022442
:0124C5001AFC
:0124C60022F3
:0A260A009000ECEFF09000EEEBF012
:10261400E49000F3F0A3F09000EFE0FF540770089B
:10262400EF131313541F800A9000EFE01313135495
:102634001F049000F5F09000F5EDF09000EFE0FF3E
:092644009000F5E0FDC39F505722
:10264D009000ECE0FF122B24122C389000ECE0905F
:10265D0000F6F09000EEE0FF9000F6E0C39F502CE6
:10266D009000F0E0FBA3E0FAA3E0F9A3E475F0011C
:10267D00121422FEE925F0F9EA3EFA122C40EFF48D
:0F268D00FF122C089000F6E004F080C7122C4ECC
:08269C009000F5E004F0809BC2
:0126A4002213
:052C400012136CFF22DD
:100CEE00020E90E86480F8E933E83360110460F096
:100CFE00ED33EC337009E8FCE9FDEAFEEBFF22046C
:100D0E0060DED3EB9FEA9EE99DE8C2E78CF0C2F766
:100D1E0095F0400CE8CCF8E9CDF9EACEFAEBCFFB32
:100D2E00120E5B85D0F05804700320D5B3E8047022
:100D3E00075002B2D5020E9A92D5EC0460F7E4CCBD
:100D4E00C0E0C398F8603B94186008400DD0E0FBFB
:100D5E00020E72E4FBFAC9FC8028E830E406E4C90E
:100D6E00FBE4CAFCE830E305E4C9CACBFCE854074F
:100D7E006010F8C3E913F9EA13FAEB13FBEC13FC5A
:100D8E00D8F130F52FC3E49CFCEF9BFFEE9AFEEDFD
:100D9E0099FDD0E0FBEF4E4D4C701222DB03020E9C
:100DAE0097EC2CFCEF33FFEE33FEED33FDED30E729
:100DBE00EB020E72EF2BFFEE3AFEED39FDD0E0FBAB
:100DCE0050130BBB0003020E9AED13FDEE13FEEF54
:080DDE0013FFEC13FC020E727E
:100DE60075F020800E75F010800575F0087D007E88
:100DF600007F003392D530D503121438EC334010FF
:100E0600EF33FFEE33FEED33FDEC33FCD5F0ED2290
:0E0E1600E5F0247EA2D513CC92E7CDCEFF22CC
:100E2400EDD2E7CD33EC3392D524814006E4FFFEC6
:100E3400FDFC22FCE4CFCECDCC24E0501174FF8025
:100E4400EDC3CC13CCCD13CDCE13CECF13CF0470C2
:070E5400F030D5DE02143876
:10158400E50824BFF582E43400F583E005082290E1
:1015940000BC3007039000BFE475F0011214DD02B3
:1015A400136C2000E97F2ED2008018EF540F249092
:1015B400D43440D4FF30040BEF24BFB41A005003DA
:1015C4002461FFE50960021509050CE50C700205AC
:1015D4000B30070E9000BCE475F0011214DDEF022D
:1015E40013B2022B4B7403D2078003E4C207F5083D
:1015F4009000BC1214F4E4F509F50BF50CE5096050
:10160400077F201215C780F5750AFFC201C200C208
:1016140002C203C205C206C208121593FF700D3040
:1016240007057F001215D8AF0CAE0B22B4255FC29C
:10163400D5C204121593FF24D0B40A00501A75F0D1
:101644000A780930D50508B6FF0106C6A426F62097
:10165400D5047002D20380D924CFB41A00EF500409
:10166400C2E5D2040218CAD20180C6D20080C0D218
:101674000280BCD2D580BAD20580B47F201215C7AF
:101684002002077401B5090040F1121584FF1215F8
:10169400C7021601D208D2068095121584FB1215D2
:1016A40084FA121584F94A4B700679C87A197BFFBB
:1016B40020022EE509602A7E008E827583001213B3
:1016C4008560060EEE650A70F0C2D5EBC0E0EAC094
:1016D400E0E9C0E0EE12192BD0E0F9D0E0FAD0E056
:1016E400FB12136CFF60AAEBC0E0EAC0E0E9C0E0C3
:1016F4001215C7D0E02401F9D0E03400FAD0E0FBA1
:10170400E50A0460DCD50AD98087D20280A21219C6
:101714000D60F7E50A700104120F1EA90A600DE5B9
:101724000A600914F50A1219B5EF60F3EA30E7020A
:10173400F404C3995079EAF4250A0430E701E40477
:10174400F50A800D12190D60C1EA050A250A120F67
:101754001EEA9000EBF030E701E4250A04D50A0400
:101764002005011412192BE4C0E01219B59000EB06
:10177400E0601320E70714F01215AF802204F0D0C4
:10178400E014C0E07F001215AFE50A60071215A649
:10179400150A800B3005031215A6D0E0021601D0FD
:1017A400E00480C412190D609EE50A04120F1E9015
:1017B40000EBEAF0E50A2005026001042404121992
:0117C4002BF9
:1017C50074FF04C0E01219B51215AFE50A20050231
:1017D50060031215A6D0E0B50AE87F451215B99049
:1017E50000EBE07F2B30E7047F2DF404C0E01215F9
:1017F500C7D0E075F00A84C0F01215B0D0E012151C
:10180500B0021601791080027908C206C208800864
:10181500D2D5790A8004790AC2D5E50A047002F5A1
:101825000AE4FAFDFEFF121584FC7B082001131261
:101835001584FD7B1030000A121584FE121584FFF5
:101845007B20EC3382D592D55013C3E43000069F3C
:10185500FFE49EFEE42001039DFDE49CFCE4CBF83F
:10186500C201EC700CCFCECDCCE824F8F870F38033
:1018750017C3EF33FFEE33FEED33FDEC33FCEB33F3
:10188500FB994002FB0FD8E9EB300105F8D0E0C425
:1018950048B201C0E00AEC4D4E4F78207B0070C283
:1018A500EAB50A0040BCC0E012192DD0F0D0E02006
:1018B5000104C4C0E0C4B201C0F01215B0D0F0D527
:1018C500F0EB0216011214FD169E53180958166FF7
:1018D5004C166B42180D4F181544181549168443BC
:1018E500181B5517484617A84517124719E85016EB
:1018F500732D16772E169A2B167B2316982019D141
:101905002A16334800001692E50AB4FF03750A0645
:10191500121584FC121584FD121584FE121584FF20
:101925009000E4020F5B790AA2D520031430050963
:10193500B910020404B9080104A2D5200602500119
:10194500042002689202B509005034C0E07F2030BF
:1019550003197F30A20272067205500F121984C254
:1019650002C206C205C2087F30800F300503E9C0F8
:10197500E01215C7300503D0E0F9D0E0B509CC3049
:1019850005177F30B9100C1215C77F583004077F33
:10199500788003B908031215C73002057F2D02159B
:1019A500C77F202008F87F2B2006F322920280CFE4
:1019B5007F00B40700500B24E4F582E43400F5837E
:1019C500E0FF22286E756C6C2900D2011215843057
:1019D50001F8C201780930D50108F60216332D50F9
:1019E5004349581215842403B405004001E49019B5
:1019F500E3931215B8743A1215B8D20375090402A7
:021A05001809BE
:10217B009000A212149474FFFFFEFDFC9000A2E0ED
:10218B00F8A3E0F9A3E0FAA3E0FBC312145C6038F8
:10219B007F807E967D187C4B9000A2E0F8A3E0F93F
:1021AB00A3E0FAA3E0FB120EA56002501B7F807E1A
:1021BB00967D187CCB9000A2E0F8A3E0F9A3E0FA9F
:1021CB00A3E0FB120EA5500F9000A2E0FCA3E0FDD4
:1021DB00A3E0FEA3E0FF229000A2E0FCA3E0FDA39E
:1021EB00E0FEA3E0FF120E249000A61214949000C0
:1021FB00A6E0FCA3E0FDA3E0FEA3E0FFEC120DE6DE
:10220B00C8ECC8C9EDC9CAEECACBEFCB9000A2E0AF
:10221B00FCA3E0FDA3E0FEA3E0FF120CF1E4FBFA4C
:10222B00F9F8120EA5602640249000A6E0FCA3E06E
:10223B00FDA3E0FEA3E0FFEF24FFFFEE34FFFEED76
:10224B0034FFFDEC34FFFC9000A61214949000A612
:10225B00E0FCA3E0FDA3E0FEA3E0FFEC120DE62201
:100E5B00E9D2E7C933E833F892D5EDD2E7CD33ECDD
:070E6B0033FC5002B2D52256
:100E7200EC30E7100FBF000C0EBE00080DBD0004E1
:100E82000BEB6014A2D5EB13FCED92E7FD2274FF8D
:100E9200FCFDFEFF22E480F8A2D574FF13FC7D80E6
:030EA200E480EFFA
:100EA50074F8CC6480CCC86480C8F58204604FC3F4
:100EB500EB9FF5F0EA9E42F0E99D42F0E89C45F093
:100EC500603C501DE5825FFFE582D313CB5BCBF41D
:100ED5002B5582FB50280ABA002409B90020088046
:100EE5001DE5825BFBE582D313CF5FCFF4C3132FE0
:100EF5005582FF50090EBE00050DBD00010CC3EB68
:100F05009FF5F0EA9E42F0E99D42F0E89C45F060CD
:090F150007CC4820E701B3EC22EF
:100F1E00F920E73624F950037907E4F42402FBE5BF
:100F2E0082158270021583DBF6E024FB501BE9600C
:100F3E0014E4F0E582158270021583E004F0B40A21
:0D0F4E0008E4F0D9EE7401F00A22C2D522A9
:100F5B00ED33EC3392D5FA602AB4FF33EDC2E77B65
:100F6B00FF60067A0F7980E4227A0F798920D50405
:100F7B007A0F7984224E614E002B494E46002D4943
:100F8B004E4600E47A08F0A3DAFC7B00740722C01B
:100F9B0083C082ECC0E0EDC0E0EEC0E0EFC0E0EA61
:100FAB0075F010A4CAABF075F04DA42BFBE435F033
:100FBB00FCEA2410FAEB34C5FBEC34D9FCEDC2E7A8
:100FCB00FF75F056A4F42411C5F0F434C58FF0A4CA
:100FDB002AE5F03BE43CF020E714121236D0E0FF98
:100FEB00D0E0FED0E0FDD0E0FC1211698014F404D7
:100FFB00121236D0E0FFD0E0FED0E0FDD0E0FC12C4
:10100B001060D082D083E0FAEDD2E7CD33EC3324FD
:10101B0082FBE4C3CF33CFCE33CECD33CD33DBF333
:10102B007B0775F00A846004F0A31B0AE5F0F0A3BC
:10103B008FF0740AA4FFACF08EF0740AA42CFEACF3
:10104B00F050010C8DF0740AA42CFDE435F0F0A3E4
:05105B00DBDE7407223A
:10106000EC4D6011E8497017ED33EC3304600DE48A
:10107000FCFFFEFD22E933E8330470F8020E901203
:101080000E5B58046009E4CC248150062850090204
:101090000E9A284003020E97C0E0EB4A7044B980D4
:1010A00006D0E0FB020E86EF4E701CBD8008EBFF01
:1010B000EAFEE9FD80EBE98DF0A4FEE5F0021149BE
:1010C000E9CDF9EAFEEBFFEF89F0A4FCE5F0CE896B
:1010D000F0A42EFFE435F0CD89F0A42DFEE435F028
:1010E0008067EF4E7005BD80D780C3EF8BF0A4AC56
:1010F000F0EE8BF0A42CFCE435F0F8EF8AF0A42C91
:10110000E5F038FCE433CB8DF0A42CFCE5F03BF8A3
:10111000EE8AF0A42CFCE5F038F8E433CF89F0A493
:101120002CFCE5F038CF3400CE89F0A42FFFE5F099
:101130003EFEE433C98DF0A42EFEE5F039CD8AF0F1
:10114000A42FFFE5F03EFEE43DFD33D0E0FB500769
:101150000BBB000F020E9AEC2CFCEF33FFEE33FEBC
:06116000ED33FD020E72EA
:10116600020E9AEC5D046005E859047003020E90C5
:10117600120E5B580460F6EC4860F2EC7004FDFE5B
:10118600FF22C860DB2481C85009C398600250065C
:10119600020E979850CAF582E9294B4A7005AB8230
:1011A600020E8675F0007C1A7880C3EF9BEE9AEDEE
:1011B60099400DC3EF9BFFEE9AFEED99FDE842F0D4
:1011C600DC23ACF0D0E0FFD0E0FED0E0FDAB822027
:1011D600E7101BEB60BAEC2CFCEF33FFEE33FEEDB1
:1011E60033FD020E72E803F830E705C0F075F00033
:1011F600EF2FFFEE33FEED33FD40B830E7C280AA95
:101206003F8000004120000042C80000447A0000F0
:10121600461C400047C35000497424004B18968072
:101226004CBEBC205A0E1BCA6753C21C749DC5AE69
:10123600FB60065407601C2323121264EB543860CB
:101246000912125012125F121060ECF8EDF9EEFA64
:10125600EFCB22EB12125F80F1543803241C90125C
:1012660006FE93FC0EEE93FD0EEE930ECE93FF223A
:10274A00020003E493A3F8E493A34003F68001F2A2
:10275A0008DFF48029E493A3F85407240CC8C33390
:10276A00C4540F4420C8834004F456800146F6DF5F
:10277A00E4800B01020408102040809027CAE47EFE
:10278A00019360BCA3FF543F30E509541FFEE49354
:10279A00A360010ECF54C025E060A840B8E493A31B
:1027AA00FAE493A3F8E493A3C8C582C8CAC583CA46
:1027BA00F0A3C8C582C8CAC583CADFE9DEE780BEFE
:01284B00008C
:10127600E709F608DFFA8046E709F208DFFA803E5A
:1012860088828C83E709F0A3DFFA8032E309F60847
:10129600DFFA8078E309F208DFFA807088828C83AF
:1012A600E309F0A3DFFA806489828A83E0A3F60863
:1012B600DFFA805889828A83E0A3F208DFFA804C3D
:1012C60080D280FA80C680D4806980F28033801014
:1012D60080A680EA809A80A880DA80E280CA80337D
:1012E60089828A83ECFAE493A3C8C582C8CCC583F5
:1012F600CCF0A3C8C582C8CCC583CCDFE9DEE780C5
:101306000D89828A83E493A3F608DFF9ECFAA9F043
:10131600EDFB2289828A83ECFAE0A3C8C582C8CC99
:10132600C583CCF0A3C8C582C8CCC583CCDFEADEB2
:10133600E880DB89828A83E493A3F208DFF980CC14
:1013460088F0EF60010E4E60C388F0ED2402B4040D
:101356000050B9F582EB2402B4040050AF232345B4
:0613660082239012C67301
:10136C00BB010689828A83E0225002E722BBFE027F
:09137C00E32289828A83E49322B2
:10138500BB010CE58229F582E5833AF583E022501D
:1013950006E92582F8E622BBFE06E92582F8E22267
:0D13A500E58229F582E5833AF583E4932281
:1013B200BB010689828A83F0225002F722BBFE011A
:0213C200F32214
:1013C400EF8DF0A4A8F0CF8CF0A428CE8DF0A42E3D
:0213D400FE22F7
:1013D600C2D5EC30E709B2D5E4C39DFDE49CFCEE32
:1013E60030E715B2D5E4C39FFFE49EFE121523C372
:1013F600E49DFDE49CFC800312152330D507C3E46D
:061406009FFFE49EFE22A0
:10140C00C5F0F8A3E028F0C5F0F8E582158270026B
:06141C001583E038F02208
:10142200A3F8E0C5F025F0F0E5821582700215837D
:06143200E0C838F0E822DA
:0E143800C3E49FFFE49EFEE49DFDE49CFC22C5
:10144600EB9FF5F0EA9E42F0E99D42F0EC6480C81D
:0614560064809845F022BD
:10145C00EB9FF5F0EA9E42F0E99D42F0E89C45F0E6
:01146C00225D
:10146D00E86010ECA2E713FCED13FDEE13FEEF1395
:04147D00FFD8F02282
:10148100E8600FEFC333FFEE33FEED33FDEC33FCC9
:03149100D8F1226D
:0C149400ECF0A3EDF0A3EEF0A3EFF022CB
:1014A000A8828583F0D083D0821214B71214B712A9
:1014B00014B71214B7E473E493A3C583C5F0C583CE
:1014C000C8C582C8F0A3C583C5F0C583C8C582C896
:0114D00022F9
:0C14D100A42582F582E5F03583F5832226
:1014DD00F8E0FBA3A3E0F925F0F0E5821582700298
:0714ED001583E0FA38F0223C
:0914F400EBF0A3EAF0A3E9F022F9
:1014FD00D083D082F8E4937012740193700DA3A37E
:10150D0093F8740193F5828883E473740293686091
:06151D00EFA3A3A380DF91
:102B4B00EFB40A07740D122B56740A309811A8991A
:102B5B00B8130CC2983098FDA899C298B811F630EA
:072B6B0099FDC299F59922C2
:1029E9009000FB1215787810EC4D4E4F70047CA5C1
:1029F9007DA5C3EC13FCED13FDEE13FEEF13FF50A1
:102A090010EC64CCFCED644CFDEE644EFEEF64CE3C
:102A1900FFD8DF9000FB121494EE547FFE22900041
:0D2A2900FBEEF0EFA3F0A374A5F0A3F022E4
:10152300BC000BBE0029EF8DF084FFADF022E4CCAC
:10153300F875F008EF2FFFEE33FEEC33FCEE9DEC75
:10154300984005FCEE9DFE0FD5F0E9E4CEFD22EDBB
:10155300F8F5F0EE8420D21CFEADF075F008EF2F05
:10156300FFED33FD4007985006D5F0F222C398FDF6
:051573000FD5F0EA2293
:0C157800E0FCA3E0FDA3E0FEA3E0FF22E6
:00000001FF
