:030000000229AE24
:0C29AE00787FE4F6D8FD7581210229F540
:1017B400462052204F2047204720452052006C6F7E
:1017C4006E65736F756C7375726665720074696E9D
:1017D4007920617263616465002D4849474820534C
:1017E400434F52452052455345542D002D2D204D35
:1017F400555445202D2D002D20534F554E44204F38
:101804004E202D002D2D2D2D2D2D2D2D2D2D2D2D1D
:101814002D2D2D2D00472041204D204520204F20E7
:1018240056204520520053434F52453A00484947F9
:10183400482053434F52453A00204E4557204849CB
:1018440047482053434F524520002D2D2D2D2D2D3B
:101854002D2D2D00204C4556454C20000000000045
:101864000000000808080808000060600000003C50
:101874004030403C003E5149453E0000427F40001C
:10188400004261514946002141454B310018141270
:101894007F10002745454539003C4A49493000013D
:1018A4007109050300364949493600064949291E8C
:1018B400000036360000007C1211127C007F49497A
:1018C4004936003E41414122007F4141221C007FB4
:1018D40049494941007F09090901003E4149497AC2
:1018E400007F0808087F0000417F4100002040413C
:1018F4003F01007F08142241007F40404040007FA8
:10190400020C027F007F0408107F003E4141413EEB
:10191400007F09090906003E4151215E007F091933
:1019240029460046494949310001017F0101003F30
:101934004040403F001F2040201F003F4038403FB0
:10194400002054545478007F4844443800384444B8
:10195400442000384444487F003854545418000844
:101964007E0901020018A4A4A47C007F0804047862
:101974000000447D4000004080847D00007F1028EA
:1019840044000000417F4000007C04180478007C7F
:101994000804047800384444443800FC24242418FF
:1019A4000018242418FC007C08040408004854543B
:1019B400542000043F444020003C4040207C001C54
:1019C4002040201C003C4030403C00442810284467
:1019D400001CA0A0A07C00324959513E83DC7A3F10
:1019E4003F7ADC8399BDDB7E7E3CE78181E73C7EE8
:1019F4007EDBBD993C7ED7B5ADBFFFEDADADFFB786
:101A0400F5BFB7ADEDBDC3BDA5BD423C007F41559B
:101A1400555555555555555555555555417F227F65
:101A24007F63221C4163466E7C7E7A3EBCFE7E3E12
:101A3400BEBEFC7C7838383870606040001C22637D
:101A44007F7F2222223E3E7F6363221C223E3E7F12
:101A54006363221C000000000000000080C0F07CD2
:101A640006735943063C383030383E267B594306CA
:101A74007CF0C080000000000000000000000000B6
:101A8400000078FFCF0100003060E0C080808080DB
:101A9400808080C0C0603000000001CFFE7800006C
:101AA400000000007CFE860E0E1C18317FFEFC1C1C
:101AB40018383838393939393939393838383818DB
:101AC4001CFCFE7F39181C0E0EC6FE3C0001070EDE
:101AD4001C3870C0C0800307FCF80000F0C0C0C010
:101AE400C0C0E0F00000F8FC0F0380C0E070381CB8
:101AF4000E03010004060F0F06060303036373338A
:101B04003BFFFF7F3F38F0C000F0F83F7FFFFF3B13
:101B140033636303030306060F0F0600000000008F
:101B240000000000000000030002000400020002A4
:0E1B34000003FFFEFFFDFFFCFFFCFFFDFFFBBB
:102E750041007B004100050041007F0041007A00D0
:102A3A00E4900099F0A3F0900095F0A37402F0904E
:102A4A000095E0FEA3E0FFC39407EE6480948050F3
:102A5A0067AD077F55122DB9122EEAE4900097F060
:102A6A00A3F0900099E0FEA3E02458F9741A3EFA04
:102A7A007BFF122EF2122EBA90009AE004F0700632
:102A8A00900099E004F0900098E004F0700690003D
:102A9A0097E004F0C3900098E09428900097E064CF
:102AAA0080948040BD122F00900096E004F0708F51
:082ABA00900095E004F0808714
:012AC20022F1
:08000300122EF7121B4280FBD4
:032EF70002269D13
:101B4200E4FF122D607BFF7A1779B47D02E4FF1265
:101B520025DA7BFF7A1779C27D04E4FF1225DA7D4C
:101B620001E4FF122DB9E4900088F0A3F0122EEAEE
:101B72007F38122EBA122F00900089E004F070060E
:101B8200900088E004F0C3900089E09450900088AF
:101B9200E06480948040D67D03E4FF122DB9E49086
:101BA2000088F0A3F0122EEA7F1C122EBA122F0028
:101BB200900089E004F07006900088E004F0C39081
:101BC2000089E09450900088E06480948040D612AE
:101BD2002A3A7BFF7A1779D17D06E4FF1225DA7F54
:101BE200DC7E05122D16122E9690008A12077B902B
:101BF200008E12078700000000E4900092F020B0EF
:101C020003021C88122E9690008E12077B90008A87
:101C1200E0F8A3E0F9A3E0FAA3E0FBA3E0FCA3E071
:101C2200FDA3E0FEA3E0C39BFFEE9AFEED99FDEC5F
:101C320098FCE47BD07A07F9F8C3120754503C9021
:101C420000927401F020CD0C7BFF7A1779DDE4FD60
:101C52007F08802290007BE0700E04F07BFF7A17F1
:101C620079F0E4FD7F20800EE490007BF07BFF7A28
:101C72001779FBFD7F1F1225DA800B900092E0643A
:101C8200016003021C001227E2900092E06003024E
:101C92001DC67FD07E07122D1612269DE4FF122D3F
:101CA2006012085FE4900081F0A3F0E07F00FE90F4
:101CB2000081F0A3EFF0900081EEF0A3EFF090002E
:101CC20080F090000AE0FCA3E0FDD39FEE6480F870
:101CD200EC648098400E900081ECF0A3EDF090004F
:101CE200807401F0E4FF122D607BFF7A1879087D81
:101CF200017F0B1225DA7BFF7A1879197D027F0B9F
:101D02001225DA7BFF7A1879087D037F0B1225DA18
:101D12007BFF7A18792A7D057F251225DA90000A41
:101D2200E0FAA3E0FB7D057C007F4B7E00122C2DA8
:101D3200900080E070147BFF7A1879317D077F155F
:101D42001225DA7D077F58122C217FE87E03122D9F
:071D520016900080E0606DB7
:101D5900E4FF122D607BFF7A1879087D017F0A1252
:101D690025DA7BFF7A18793D7D037F0A1225DA7B14
:101D7900FF7A1879087D077F0A1225DA7D057F32F7
:101D8900122C219000937402F0A374BCF09000937C
:101D9900E0FCA3E0FDD394C8EC6480948040177FF5
:101DA9001E7E00122BB3900094E024CEF090009395
:0D1DB900E034FFF080D77FB07E04122D16BD
:031DC600022F03E6
:0C2C2100900081E0FAA3E0FB7C007E0044
:102C2D009000A1EEF0A3EFF0A3ECF0A3EDF0A3EA7A
:042C3D00F0A3EBF025
:102C410078A77C007D017BFF7A1B79207E007F0ABB
:102C51001206669000A5E0FEA3E0FF7B017A0079F1
:102C6100A79000B6740AF0122E1F9000A1A3E0FFF6
:0D2C7100A3A3E0FD7B017A0079A70225DA1C
:10085F00E4900004F090000AF0A3F0900074740785
:10086F00F0A374D0F09000077401F090000C74089E
:10087F00F090008514F0E4900006F090007904F0F9
:10088F00E4900008F0A3F0900083F0A3F090007DB7
:10089F0004F0A3F0E4900086F0A3F090000DF0A315
:1008AF007402F0900076740CF0A3E4F0A304F0123D
:1008BF001DC9E4FF122E61900079E0FFE4FD122BB9
:1008CF0043121340122743122AC390000AE0FAA3DF
:1008DF00E0FB7D077C00E4FFFE122C2DC390000D82
:1008EF00E0648094805003020EBC900009E004F095
:1008FF007006900008E004F0C3900078E094F49044
:10090F000077E064809481400874FF90000DF0A39D
:10091F00F090007C7401F090000AE0FAA3E0FB7CF9
:10092F00007D0AFFAE021206E47C007D0A1206E487
:10093F00ED4C600690007CE004F07C007D64AF031A
:10094F00AE021206E47C007D0A1206E4ED4C60064E
:10095F0090007CE004F090000AE0FEA3E0FF7C032F
:10096F007DE81206E47C007D0A1206E4ED4C600679
:10097F0090007CE004F0900074E0FEA3E0FF7C00A8
:10098F007D081206E4D3900009E09FEE6480F89092
:10099F000008E06480984067900078E004F07006EB
:1009AF00900077E004F0900083E004F090007EE088
:1009BF00B40104E4F0800690007E7401F090007E94
:1009CF00E0B40106900084E004F0900083E0B407E7
:1009DF00081221DBE4900083F0900084E0B407025A
:1009EF00E4F0E4900008F0A3F0122517900004E063
:1009FF00700D121340900079E0FFE4FD122B437D40
:100A0F00E87C03E4FFFE122D8DC3EF94ACEE6480FF
:100A1F0094835020900006E0701A90000504F0E4D3
:100A2F00900077F0A3F090000604F0122E9690003D
:100A3F000012077B90007FE064016003020AD3126B
:100A4F002E96A804A905AA06AB07900000E0FCA308
:100A5F00E0FDA3E0FEA3E0243CFFE43EFEE43DFD09
:100A6F00E43CFCD312076A405BE4900077F0A3F0FC
:100A7F0090007FF020B10790000504F08046E4FD60
:100A8F00FF122B43900085E0FFB4070D90007CE030
:100A9F00FE90000CE0D39E500EEFC39407501090C1
:100AAF00000CE09400400890000CE014F0800F90D0
:100ABF000085E0C3940750069000047401F0900085
:100ACF00797402F090007AE064016003020B641203
:100ADF002E96A804A905AA06AB07900000E0FCA378
:100AEF00E0FDA3E0FEA3E0243CFFE43EFEE43DFD79
:100AFF00E43CFCD312076A405CE4900077F0A3F06B
:100B0F0090007AF020CD0790000504F08047E4FDB7
:100B1F00FF122B43900085E0FFB4070D900076E0A5
:100B2F00FE90000CE0C39E400FEFC394075011904E
:100B3F00000CE0C3940E500890000CE004F0800FFE
:100B4F00900085E0C3940750069000047401F09064
:100B5F0000797403F0900005E064016003020D0B4F
:100B6F00F0900007E0FF90000BE02FF090000AE0FC
:100B7F003400F0E0FAA3E0FB7D077C00E4FFFE12F7
:100B8F002C2DE4FDFF122B43900085E0D394014000
:100B9F0066E014F0E0FFB4030F900083E0C3940409
:100BAF00500690000CE014F0EFB4021D900083E0AB
:100BBF00FFA3E02FFFE433FEC3EF9405EE648094B0
:100BCF0080500690000CE004F0900085E064016016
:100BDF0003020CA3900083E0FFA3E02FFFE433FE9A
:100BEF00C3EF9405EE648094804003020CA3900041
:070BFF000CE014F0020CA34E
:100C0600900083E0C39404500C90000CE0C3940F52
:100C16005003E004F090000CE075F00384FCE4124D
:100C2600001812233C12004C900099EFF0E0FF24CC
:0B0C36006FF582E43400F583E0705C91
:100C4100900087E004F07006900086E004F0746F75
:100C51002FF582E43400F5837401F0900085740768
:100C6100F090000C04F090009A7403F0A374E8F083
:100C710090009AE0FCA3E0FDD394C8EC64809480DA
:100C810040207F0A7E00122BB3122AC390009BE002
:0C0C9100249CF090009AE034FFF080D426
:060C9D009000047401F058
:100CA3009000797401F0C3900087E094059000866A
:100CB300E0648094804051900007E004F0E0FF7E00
:100CC3000012242CD3900075E09463900074E064C8
:100CD300809480400CA3E0249CF0900074E034FFE7
:100CE300F0121DC9E4FF122E61E4900086F0A3F018
:100CF300122AC312274390000AE0FAA3E0FB7D0700
:100D03007C00E4FFFE122C2D900077E07002A3E03C
:100D13007039900004E07033900077F0A304F0A3DF
:100D2300E0FFE4FD122B431213407D907C017F1EF4
:100D33007E00122BB37D2C7C017F1E7E00122BB311
:100D43007DC87C007F1E7E00122BB31225179000F6
:100D530006E06401704A122E96A804A905AA06AB00
:100D630007900000E0FCA3E0FDA3E0FEA3E02478ED
:100D7300FFE43EFEE43DFDE43CFCD312076A402061
:100D830030B11D20B01A7DE87C03E4FFFE122D8DE7
:100D9300D3EF94ACEE648094834005E4900006F0B6
:090DA300900004E070030208EB6B
:100DAC001213407D01E4FF122B43E4900099F0A351
:100DBC00F0900099E0FCA3E0FDC394FAEC648094FD
:100DCC008050177F327E00122BB390009AE02432B1
:100DDC00F0900099E03400F080D7122B3C900099F1
:100DEC00E4F0A374FAF0900099E0FCA3E0FDC39446
:100DFC00F4EC6480948150177F327E00122BB390F8
:100E0C00009AE02432F0900099E03400F080D77D15
:100E1C0001E4FF122B439000997401F0A374F4F0D9
:100E2C00900099E0FCA3E0FDC394EEEC6480948206
:100E3C0050177F327E00122BB390009AE02432F0D0
:100E4C00900099E03400F080D7122B3C90009974FC
:100E5C0002F0A374EEF0900099E0FCA3E0FDC394C3
:100E6C00E8EC6480948350177F327E00122BB39091
:100E7C00009AE02432F0900099E03400F080D77FA3
:100E8C00587E02122D1690000EE024FFF090000DFB
:100E9C00E034FFF0900076E004F0E4900004F012EF
:0D0EAC00274390000C7408F090008514F0AE
:030EB9000208EB41
:010EBC002213
:10251700900085E0FFD39400402CEF94045027905F
:10252700000CE0FF900085E0C454F024FFF582E43E
:1025370034FFF583E5822FF582E43583F583E07078
:102547000590000404F0900085E0FFD3940040302C
:10255700EF9404502B90000CE0FF900085E0C454EA
:10256700F024FFF582E434FFF583E5822FF582E45A
:102577003583F583E0D3940940069000047401F095
:10258700900085E0FFC394075048EF9403404390C1
:10259700000CE0FF900085E0FEC454F024FFF582B4
:1025A700E434FFF583E5822FF582E43583F583E094
:1025B700701AEEC454F024FEF582E434FFF583E587
:1025C700822FF582E43583F583E06006900004747A
:0325D70001F022EE
:101DC900789C7C007D017BFF7A1B792A7E007F0C41
:101DD90012066678A87C007D017BFF7A1B79367E26
:101DE900007F0C120666E4FFF99000C0F09000072E
:101DF900E0FEB4010A9000B274FFF0A374F2F0EEB1
:101E0900C39403500A9000B074FFF0A374FAF0EE83
:101E1900C39404500A9000AE74FFF0A374F9F0EE75
:101E2900D39404402B9000C17401F09000C1E0FEEE
:101E3900C39403501BEE25E024A8F582E43400F591
:101E49008374FFF5F012071A9000C1E004F080DBFB
:101E5900900007E0FED3940740189000AE74FFF09D
:101E6900A374FCF0A374FFF0A314F0A304F0A3740B
:101E7900FDF0EED3940240069000C07405F0EED355
:101E8900940640069000C07409F0E49000C1F090F7
:101E990000C1E0FE25E0249CF582E43400F583E0EE
:101EA900FCA3E0FDEE25E024B4F582E43400F583DB
:101EB900ECF0A3EDF09000C1E004F0E0B406D0E44A
:101EC900FEE49000C2F09000C2E0FDC394065021E8
:101ED900EDC454F0240FF582E43400F583E5822E35
:101EE900F582E43583F583E4F09000C2E004F080E4
:101EF900D50EEEB410CBE4FF9000C2F0E4FE9000E2
:101F0900C2E0FD25E024B4F582E43400F583E0FA6B
:101F1900A3E0D39400EA648094805003021FB7EDD4
:101F2900FB740E9BFBE49400FAED25E024B4F582E2
:101F3900E43400F583E0FCA3E0FDC39BEA6480F888
:101F4900EC6480985068ED64014C7006EFB40102AE
:101F59007F029000C2E0FDD394024004790380021D
:101F6900E4F9EDB404027909EDD394004006EF24B5
:101F7900042980129000C0E0FDEEC39DEF400524C6
:101F890004298002240AFD9000C2E0C454F0240F01
:101F9900F582E43400F583E5822EF582E43583F594
:101FA90083EDF0EF70027F01EFB40202E4FF9000CD
:101FB900C2E0FD25E024B4F582E43400F58374FF22
:101FC900F5F012071AED25E024A8F582E43400F5AE
:101FD90083E0FCA3E0FD9000C2E025E024B4F58293
:101FE900E43400F583E0FAA3E0D39DEC6480F8EAD9
:101FF90064809850269000C2E0FD25E0249CF5827B
:10200900E43400F583E0FAA3E0FBED25E024B4F520
:1020190082E43400F583EAF0A3EBF00EEE640F607E
:1020290003021F079000C2E004F0E06406600302A7
:022039001F0581
:01203B002282
:072B3C00900079E0FF7D012C
:102B43009000A1EFF0900085E0FFD39406500BEFC7
:102B5300C394014005ED64017055900085E0FF6466
:102B6300016004EFB4031590000CE075F008A42491
:102B730007FF900083E0FEC3EF9E801E900085E078
:102B8300FD90000CB4020EE075F008A4FF900084E1
:102B9300E02FFF800BE075F008A4FF900085E0FDB7
:102BA300122DB9122EEA9000A112291D122F002214
:05134000900079E0FFC0
:0513450090009CEFF098
:10134A00E4A3F090009FF090009FE0FFC394064052
:10135A000302156EEFC39400400DEF9403500890FA
:10136A00009D7401F08005E490009DF090009FE0DC
:10137A0004FDE4FF122DB9122EEAE490009EF090CB
:10138A000083E0FFC374079FFF90009EE0C39F5055
:10139A005BA3E0C454F0241EF582E43400F583E034
:1013AA00700990009DE0FDE4FF803690009FE0C444
:1013BA0054F0241EF582E43400F583E075F008A4A5
:1013CA0024D9F9741935F0FA7BFF90009EE0FF905A
:1013DA000083E02F29F9E43AFA122EF290009DE0F8
:1013EA00FD122E0A90009EE004F08093E49000A083
:1013FA00F09000A0E0FFC3940F40030214FA90009B
:10140A009FE02401FDE433FC900085E0FE7A00B5FC
:10141A000522EAB5041E90000CE0B50717EEC39446
:10142A00045011900085E09400400990009CE0FF70
:10143A00E40214ED900004E060030214C890009FD7
:10144A00E02401FFE433FE900085E0FD6F7001EEB9
:10145A00706C9000A0E02401FFE433FE90000CE0E1
:10146A006F7001EE7058EDD394034052900085E0FE
:10147A009407504AE490009EF0900083E0FF9000A9
:10148A009EE0C39F500B122E0790009EE004F0804E
:10149A00E812291AE490009EF0900083E0FFC374DA
:1014AA00079FFF90009EE0C39F500B122E079000EB
:1014BA009EE004F080E39000A0E004F08029900010
:1014CA00A0E0FF90009FE0C454F0240FF582E434BA
:1014DA0000F583E5822FF582E43583F583E0FF90FA
:1014EA00009DE0FD1229219000A0E004F00213FB08
:1014FA00E490009EF0900083E0FF90009EE0C39F7E
:10150A005055A3E0C454F0241EF582E43400F58358
:10151A00E0700990009DE0FDE4FF803090009FE0BC
:10152A00C454F0241EF582E43400F583E075F00813
:10153A00A424D8F9741935F0FA7BFF90009EE029AB
:10154A00F9E43AFA122EF290009DE0FD122E0A906A
:10155A00009EE004F0809E122F0090009FE024027B
:10156A00F002135190000CE0700690009C122B3F81
:10157A0090009F7401F090009FE0FFC3940640031F
:10158A000217A7EF9400400DEF9403500890009DB6
:10159A007401F08005E490009DF090009FE004FD46
:1015AA00E4FF122DB9122EEAE490009EF090008416
:1015BA00E0FF90009EE0C39F5060A3E0C454F02473
:1015CA001EF582E43400F583E0700990009DE0FD89
:1015DA00E4FF803B90009FE0C454F0241EF582E4AF
:1015EA003400F583E075F008A424D8F9741935F0AD
:1015FA00FA7BFF900084E0FFC374089FFF90009E6F
:10160A00E02F29F9E43AFA122EF290009DE0FD1239
:10161A002E0A90009EE004F08093E49000A0F090DF
:10162A0000A0E0FFC3940F400302172E90009FE032
:10163A002401FDE433FC900085E0FE7A00B5052222
:10164A00EAB5041E90000CE0B50717EEC3940450E7
:10165A0011900085E09400400990009CE0FFE402AC
:10166A001721900004E060030216FC90009FE0241A
:10167A0001FFE433FE900085E0FD6F7001EE7072A9
:10168A009000A0E02401FFE433FE90000CE06F70AC
:10169A0001EE705EEDD394034058900085E0940704
:1016AA005050E490009EF0900084E0FFC374079FBE
:1016BA00FF90009EE0C39F500EE4FDFF122E0A9099
:1016CA00009EE004F080E012291AE490009EF09057
:1016DA000084E0FF90009EE0C39F500EE4FDFF12DD
:1016EA002E0A90009EE004F080E59000A0E004F04D
:1016FA0080299000A0E0FF90009FE0C454F0240FDE
:10170A00F582E43400F583E5822FF582E43583F52A
:10171A0083E0FF90009DE0FD1229219000A0E004E3
:10172A00F0021629E490009EF0900084E0FFC37452
:10173A00079FFF90009EE0C39F5055A3E0C454F05A
:10174A00241EF582E43400F583E0700990009DE0E0
:10175A00FDE4FF803090009FE0C454F0241EF5821F
:10176A00E43400F583E075F008A424D8F974193537
:10177A00F0FA7BFF90009EE029F9E43AFA122EF281
:10178A0090009DE0FD122E0A90009EE004F08099E0
:10179A00122F0090009FE02402F002158090000CA6
:0917AA00E0700690009C122B3F38
:0117B3002213
:032E0700E4FDFFE8
:102E0A009000A1EFF0ED7003E080059000A1E0F4DE
:052E1A00FF122EBA2298
:07291A0090009CE0FFE4FDCA
:082921009000A4EFF0A3EDF01B
:10292900E4A3F0A3F09000A4E0FFD394004048A3EF
:10293900E0701EEF75F008A424D8F9741935F0FA7F
:102949007BFFA3E0FEA3E029F9EA3EFA122EF2800A
:10295900319000A4E075F008A424D8F9741935F071
:10296900FA7BFF9000A6E0FEA3E029F9EA3EFA12FD
:102979002EF2EFF4FF800B9000A5E07003FF8002B8
:102989007FFF122EBA9000A7E004F070069000A60F
:10299900E004F0C39000A7E094089000A6E06480EA
:0429A9009480408155
:0129AD002207
:1027430090000CE090009EF0900085E090009FF0D8
:102753009000857407F090009CE4F0A37402F0905D
:10276300009CE0FEA3E0FFD39400EE6480948040DD
:102773001E740F9F90000CF07D01E4FF122B439019
:10278300009DE024FFF090009CE034FFF080D090A7
:10279300000DE0FFA3E090009CCFF0A3EFF09000CA
:1027A3009CE0FEA3E0FFD39400EE64809480401E7F
:1027B300740F9F90000CF07D017F01122B4390005A
:1027C3009DE024FFF090009CE034FFF080D0900067
:0E27D3009FE0900085F090009EE090000CF0DA
:0127E10022D5
:102AC3009000A17403F0E4A3F09000A1E0FFE4FD03
:102AD300122DB9122EEA7FFF122EBA7F01122EBADF
:102AE3007F01122EBA9000A2E0246FF582E4340035
:0F2AF300F583E0B40109E4FD7F0112292180166B
:102B0200E49000A3F07F01122EBA9000A3E004F03B
:062B1200E0C3940840EF4F
:102B18007F01122EBA7F01122EBA7FFF122EBA122F
:102B28002F009000A1E02418F0A3E004F0E0C39483
:032B3800054091C4
:012B3B002277
:102E6100E4FE746F2EF582E43400F583EFF00EEE8C
:032E7100B405EFB6
:012E7400223B
:08242C0090009CEEF0A3EFF01C
:0C2434007FC87E00122D16E490009EF080
:10244000E4FF122E61122AC390009F7403F0A3745C
:1024500020F090009FE0FCA3E0FDD394C8EC6480E2
:10246000948040177F147E00122BB39000A0E024CC
:1024700038F090009FE034FFF080D77F01122E618A
:10248000122AC390009F7403F0A37420F090009F61
:10249000E0FCA3E0FDD394C8EC6480948040177FF7
:1024A000147E00122BB39000A0E02438F090009F1F
:0624B000E034FFF080D7CC
:1024B60090009EE004F0E0C3940550030224407FA0
:1024C600F47E01122D16E4FF122D607BFF7A187937
:1024D6004E7D017F231225DA7BFF7A1879587D031A
:1024E6007F231225DA7BFF7A18794E7D057F23122A
:1024F60025DA90009CE0FAA3E0FB7D037C007F4D8B
:102506007E00122C2D7FDC7E05122D16E4FF022D97
:012516006064
:1021DB00E490009CF0A3F090007DE0B40104E4F0E7
:1021EB00800690007D7401F0E4FE900085E0FDC355
:1021FB0094045055ED94004050EE2401FDE433FC63
:10220B00E06D7001EC704290009CE0FCA3E0FD647B
:10221B00014C701A90007DE0B4011390000CE0C3E8
:10222B00940E4002801590000CE004F0801BED4CE6
:10223B00701790000CE0C3940150089000047401D7
:10224B00F0800690000CE014F090009CE07002A36C
:03225B00E07069C7
:10225E00EEC454F0240FF582E43400F583E09000D0
:10226E009EF0E4FFEEC454F02410F582E43400F541
:10227E0083E5822FF582E43583F583E0FDEEC454C9
:10228E00F0240FF582E43400F583E5822FF582E425
:10229E003583F583EDF00FEFB40FC990009EE0FD8E
:1022AE00EEC454F0241EF582E43400F583EDF09074
:0722BE00009CE4F0A304F012
:0A22C500806B90007DE06401705C06
:1022CF00EEC454F0241EF582E43400F583E0900050
:1022DF009EF07F0FEEC454F0240EF582E43400F527
:1022EF0083E5822FF582E43583F583E0FDEEC45458
:1022FF00F0240FF582E43400F583E5822FF582E4B4
:10230F003583F583EDF0DFCC90009EE0FDEEC454F5
:0C231F00F0240FF582E43400F583EDF0AB
:10232B00E490009CF0A3F00EEE640660030221F52E
:01233B00227F
:10203C007072657373204120737461727400202078
:10204C00202020202020202020202000256400009B
:10205C00000000000000080808080800006060008C
:10206C0000003C4030403C003E5149453E0000429F
:10207C007F4000004261514946002141454B3100EF
:10208C001814127F10002745454539003C4A494930
:10209C0030000171090503003649494936000649EB
:1020AC0049291E000036360000007C1211127C00FB
:1020BC007F49494936003E41414122007F4141223E
:1020CC001C007F49494941007F09090901003E4133
:1020DC0049497A007F0808087F0000417F410000D1
:1020EC002040413F01007F08142241007F404040C6
:1020FC0040007F020C027F007F0408107F003E41ED
:10210C0041413E007F09090906003E4151215E0014
:10211C007F091929460046494949310001017F01CF
:10212C0001003F4040403F001F2040201F003F4027
:10213C0038403F002054545478007F4844443800C1
:10214C00384444442000384444487F0038545454A4
:10215C001800087E0901020018A4A4A47C007F08C2
:10216C000404780000447D4000004080847D000021
:10217C007F102844000000417F4000007C041804BC
:10218C0078007C0804047800384444443800FC246B
:10219C002424180018242418FC007C0804040800CB
:1021AC00485454542000043F444020003C404020FC
:1021BC007C001C2040201C003C4030403C0044284B
:0F21CC00102844001CA0A0A07C00324959513EAD
:1027E200803A20B00302287E900095E0F8A3E0F939
:1027F200A3E0FAA3E0FB9000F2E0FCA3E0FDA3E07B
:10280200FEA3E0C39BFFEE9AFEED99FDEC98FCE47B
:102812007BD07A07F9F8C312076A50169000F2E0EB
:10282200FCA3E0FDA3E0FEA3E0FF90009512077B6E
:1028320080B0900095E0F8A3E0F9A3E0FAA3E0FBF2
:102842009000F2E0FCA3E0FDA3E0FEA3E0C39BFF47
:10285200EE9AFEED99FDEC98FCE47BE87A03F9F838
:10286200C312076A7BFF50067A20793C80047A20E3
:0C287200794A7D04E4FF1225DA0227E415
:01287E002237
:102E1F009000BA74FFF0A37420F0A37458F0A3EEDF
:072E2F00F0A3EFF0020F22F7
:012F030022AB
:0E2BB3009000A1EEF0A3EFF0A3ECF0A3EDF084
:102BC100E4FFFEC39000A2E09FEE6480F89000A1B4
:102BD100E06480984049D2CCE4FDFCD39000A4E0AD
:102BE1009DEC6480F89000A3E064809840090000A7
:102BF1000DBD00010C80E4C2CCE4FCFDD39000A427
:102C0100E09DEC6480F89000A3E0648098400900A6
:0F2C1100000DBD00010C80E40FBF00010E80A478
:012C20002291
:03000B00022CCBF9
:102CCB00C0E0C0F0C083C082C0D075D000C000C0CF
:102CDB0004C005C006C0079000F2E0FCA3E0FDA312
:102CEB00E0FEA3E02401FFE43EFEE43DFDE43CFCFA
:102CFB009000F212077BD007D006D005D004D0008D
:0B2D0B00D0D0D082D083D0F0D0E032D6
:102E4C00438E805389F0758A40758CA2C28DD28CCA
:052E5C00D2A9D2AF2253
:0F2E96009000F2E0FCA3E0FDA3E0FEA3E0FF222A
:102D8D0090009CEEF0A3EFF0A3ECF0A3EDF0122C6D
:102D9D007E90009EE0FCA3E0FD1206E490009CE016
:0C2DAD00FEA3E0FFC3ED9FFFEC9EFE22A2
:082D16009000A1EEF0A3EFF024
:102D1E00122E969000A312077B9000A3E0F8A3E07A
:102D2E00F9A3E0FAA3E0FB9000F2E0FCA3E0FDA320
:102D3E00E0FEA3E0C39BFBEE9AFAED99F9EC98F84E
:102D4E009000A1E0FEA3E0FFE4FCFDC312076A4081
:012D5E00C8AC
:012D5F002251
:0C2EC00090FE82E030E6F9E054BFF02202
:092ED80090FE817401F0022EC08D
:032ECC00122EA51E
:092ECF0090FE817403F0022EC094
:092EE10090FE817406F0022EC07F
:0E2EA50090FE86EFF090FE817402F0022EC0C7
:102E3600122ED8122ECCAF05122ECCAF03122EA511
:062E4600122ECF022EE166
:10269D00E4F5B2F5B1F5CAF5C975BA8090FE80744E
:1026AD00C1F090FE82E4F0122E4C7FAE122E86E425
:1026BD00FF122E867F10122E867F40122E867F816E
:1026CD00122E867FCF122E867FA1122E867FC812E4
:1026DD002E867FA6122E867FA8122E867F3F122E63
:1026ED00867FD3122E86E4FF122E867FD5122E867C
:1026FD007F80122E867FD9122E867FF1122E867F35
:10270D00DA122E867F12122E867FDB122E867F40E6
:10271D00122E867F20122E867F02122E867F8D121C
:10272D002E867F14122E867FA4122E867FA6122E41
:06273D00867FAF022E862C
:032EFA00022ED8CD
:032EFD00022EE1C1
:072EB300AE07122EFA7F7832
:062EBA00122EA5022ECF2E
:102E8600122EB3E4FF122EBAAF06122EBA022EFD90
:082EEA00122EB57F40022EBA42
:032F0000022EFDA1
:102DB900122EB3E4FF122EBAED24B0FF122EBAEE92
:102DC90054F0C4540F4410FF122EBAEE540F4401AC
:072DD900FF122EBA022EFDCD
:022D6000AD07BD
:102D6200E4FCEC24B0FF122E86E4FF122E867F10C4
:102D7200122E86122EEAE4FEAF05122EBA0EEEB421
:0A2D820080F6122F000CECB408D804
:012D8C002224
:1025DA009000B1EFF0A3EDF0A3EBF0A3EAF0A3E9CA
:0125EA00F000
:1025EB00E49000B8F09000B3E0FBA3E0FAA3E0F9AD
:1025FB009000B8E0F5827583001206A570030226E1
:10260B009C24E09000B6F0D394004004E024F4F056
:10261B009000B6E0D3940F4004E024FAF09000B69B
:10262B00E0D394284004E024F7F09000B1E0D39479
:10263B007E4006E4F0A3E004F09000B1E0FFA3E0DD
:10264B00FD122DB9122EEAE49000B7F09000B7E01E
:10265B00FDC3940650289000B6E075F006A47C00EC
:10266B002DFFEC35F0FE745B2FF974203EFA7BFFE7
:10267B00122EF2122EBA9000B7E004F080CE122F79
:10268B00009000B1E02406F09000B8E004F00225C1
:01269B00F04E
:01269C00221B
:0A287F009000E7EFF09000E9EBF0A5
:10288900E49000EEF0A3F09000EAE0FF540770082E
:10289900EF131313541F800A9000EAE01313135423
:1028A9001F049000F0F09000F0EDF09000EAE0FFD6
:0928B9009000F0E0FDC39F5057B0
:1028C2009000E7E0FF122DB9122EEA9000E7E090A7
:1028D20000F1F09000E9E0FF9000F1E0C39F502C7E
:1028E2009000EBE0FBA3E0FAA3E0F9A3E475F001AA
:1028F200120730FEE925F0F9EA3EFA122EF2EFF461
:0F290200FF122EBA9000F1E004F080C7122F00F0
:082911009000F0E004F0809B4F
:01291900229B
:052EF20012068CFF2216
:10000E0075F020800E75F010800575F0087D007E6D
:10001E00007F003392D530D503120746EC334010E3
:10002E00EF33FFEE33FEED33FDEC33FCD5F0ED2276
:0E003E00E5F0247EA2D513CC92E7CDCEFF22B2
:10004C00EDD2E7CD33EC3392D524814006E4FFFEAC
:10005C00FDFC22FCE4CFCECDCC24E0501174FF800B
:10006C00EDC3CC13CCCD13CDCE13CECF13CF0470A8
:07007C00F030D5DE0207465B
:100EBD00E50824BAF582E43400F583E005082290B4
:100ECD0000B73007039000BAE475F0011207B802BD
:100EDD00068C2000E97F2ED2008018EF540F24904D
:100EED00D43440D4FF30040BEF24BFB41A005003A8
:100EFD002461FFE50960021509050CE50C7002057A
:100F0D000B30070E9000B7E475F0011207B8EF0231
:100F1D0006D2022DE07403D2078003E4C207F50860
:100F2D009000B71207CFE4F509F50BF50CE5096054
:100F3D00077F20120F0080F5750AFFC201C200C2A3
:100F4D0002C203C205C206C208120ECCFF700D30DC
:100F5D0007057F00120F11AF0CAE0B22B4255FC237
:100F6D00D5C204120ECCFF24D0B40A00501A75F06D
:100F7D000A780930D50508B6FF0106C6A426F62065
:100F8D00D5047002D20380D924CFB41A00EF5004D7
:100F9D00C2E5D204021203D20180C6D20080C0D2B3
:100FAD000280BCD2D580BAD20580B47F20120F004A
:100FBD002002077401B5090040F1120EBDFF120F9A
:100FCD0000020F3AD208D2068095120EBDFB120E0A
:100FDD00BDFA120EBDF94A4B700679017A137BFFEB
:100FED0020022EE509602A7E008E8275830012068E
:100FFD00A560060EEE650A70F0C2D5EBC0E0EAC042
:10100D00E0E9C0E0EE121264D0E0F9D0E0FAD0E0F1
:10101D00FB12068CFF60AAEBC0E0EAC0E0E9C0E07D
:10102D00120F00D0E02401F9D0E03400FAD0E0FB3B
:10103D00E50A0460DCD50AD98087D20280A212129B
:10104D004660F7E50A7001041201F4A90A600DE586
:10105D000A600914F50A1212EEEF60F3EA30E702A6
:10106D00F404C3995079EAF4250A0430E701E40445
:10107D00F50A800D12124660C1EA050A250A120111
:10108D00F4EA9000E6F030E701E4250A04D50A04FD
:10109D0020050114121264E4C0E01212EE9000E675
:1010AD00E0601320E70714F0120EE8802204F0D060
:1010BD00E014C0E07F00120EE8E50A6007120EDFB3
:1010CD00150A800B300503120EDFD0E0020F3AD067
:1010DD00E00480C4121246609EE50A041201F490E9
:1010ED0000E6EAF0E50A200502600104240412126C
:0110FD00648E
:1010FE0074FF04C0E01212EE120EE8E50A2005029B
:10110E006003120EDFD0E0B50AE87F45120EF290B2
:10111E0000E6E07F2B30E7047F2DF404C0E0120FD1
:10112E0000D0E075F00A84C0F0120EE9D0E0120E85
:10113E00E9020F3A791080027908C206C2088008C7
:10114E00D2D5790A8004790AC2D5E50A047002F56F
:10115E000AE4FAFDFEFF120EBDFC7B0820011312FD
:10116E000EBDFD7B1030000A120EBDFE120EBDFF2D
:10117E007B20EC3382D592D55013C3E43000069F0A
:10118E00FFE49EFEE42001039DFDE49CFCE4CBF80D
:10119E00C201EC700CCFCECDCCE824F8F870F38001
:1011AE0017C3EF33FFEE33FEED33FDEC33FCEB33C1
:1011BE00FB994002FB0FD8E9EB300105F8D0E0C4F3
:1011CE0048B201C0E00AEC4D4E4F78207B0070C251
:1011DE00EAB50A0040BCC0E0121266D0F0D0E020A2
:1011EE000104C4C0E0C4B201C0F0120EE9D0F0D5C3
:1011FE00F0EB020F3A1207D80FD7531142580FA82F
:10120E004C0FA44211464F114E44114E490FBD438F
:10121E0011545510814610E145104B471321500FC4
:10122E00AC2D0FB02E0FD32B0FB4230FD120130ADA
:10123E002A0F6C4800000FCBE50AB4FF03750A06AF
:10124E00120EBDFC120EBDFD120EBDFE120EBDFF26
:10125E009000DF020231790AA2D52003143005096D
:10126E00B910020404B9080104A2D52006025001E7
:10127E00042002689202B509005034C0E07F20308D
:10128E0003197F30A20272067205500F1212BDC2F0
:10129E0002C206C205C2087F30800F300503E9C0C6
:1012AE00E0120F00300503D0E0F9D0E0B509CC30E4
:1012BE0005177F30B9100C120F007F583004077FCE
:1012CE00788003B90803120F003002057F2D020F3C
:1012DE00007F202008F87F2B2006F322920280CF79
:1012EE007F00B40700500B24DFF582E43400F58351
:1012FE00E0FF22286E756C6C2900D201120EBD30F3
:10130E0001F8C201780930D50108F6020F6C2D5094
:10131E00434958120EBD2403B405004001E4901356
:10132E001C93120EF1743A120EF1D20375090402D7
:02133E0011425A
:10233C0090009C12077B74FFFFFEFDFC90009CE05C
:10234C00F8A3E0F9A3E0FAA3E0FBC312076A603834
:10235C007F807E967D187C4B90009CE0F8A3E0F982
:10236C00A3E0FAA3E0FB12017B6002501B7F807E8E
:10237C00967D187CCB90009CE0F8A3E0F9A3E0FAE2
:10238C00A3E0FB12017B500F90009CE0FCA3E0FD4E
:10239C00A3E0FEA3E0FF2290009CE0FCA3E0FDA3E1
:1023AC00E0FEA3E0FF12004C9000A012077B90000F
:1023BC00A0E0FCA3E0FDA3E0FEA3E0FFEC12000E06
:1023CC00C8ECC8C9EDC9CAEECACBEFCB90009CE0F3
:1023DC00FCA3E0FDA3E0FEA3E0FF120086E4FBFA01
:1023EC00F9F812017B602640249000A0E0FCA3E0E9
:1023FC00FDA3E0FEA3E0FFEF24FFFFEE34FFFEEDB4
:10240C0034FFFDEC34FFFC9000A012077B9000A081
:10241C00E0FCA3E0FDA3E0FEA3E0FFEC12000E2223
:1000830002036BE86480F8E933E83360110460F03D
:10009300ED33EC337009E8FCE9FDEAFEEBFF2204E3
:1000A30060DED3EB9FEA9EE99DE8C2E78CF0C2F7DE
:1000B30095F0400CE8CCF8E9CDF9EACEFAEBCFFBAA
:1000C30012033685D0F05804700320D5B3E80470CA
:1000D300075002B2D502037592D5EC0460F7E4CC65
:1000E300C0E0C398F8603B94186008400DD0E0FB73
:1000F30002034DE4FBFAC9FC8028E830E406E4C9B6
:10010300FBE4CAFCE830E305E4C9CACBFCE85407C6
:100113006010F8C3E913F9EA13FAEB13FBEC13FCD1
:10012300D8F130F52FC3E49CFCEF9BFFEE9AFEED74
:1001330099FDD0E0FBEF4E4D4C701222DB0302031E
:1001430072EC2CFCEF33FFEE33FEED33FDED30E7C5
:10015300EB02034DEF2BFFEE3AFEED39FDD0E0FB52
:1001630050130BBB0003020375ED13FDEE13FEEFFB
:0801730013FFEC13FC02034D25
:10017B0074F8CC6480CCC86480C8F58204604FC32B
:10018B00EB9FF5F0EA9E42F0E99D42F0E89C45F0CA
:10019B00603C501DE5825FFFE582D313CB5BCBF454
:1001AB002B5582FB50280ABA002409B9002008807D
:1001BB001DE5825BFBE582D313CF5FCFF4C3132F17
:1001CB005582FF50090EBE00050DBD00010CC3EB9F
:1001DB009FF5F0EA9E42F0E99D42F0E89C45F06005
:0901EB0007CC4820E701B3EC2227
:1001F400F920E73624F950037907E4F42402FBE5F7
:1002040082158270021583DBF6E024FB501BE96043
:1002140014E4F0E582158270021583E004F0B40A58
:0D02240008E4F0D9EE7401F00A22C2D522E0
:10023100ED33EC3392D5FA602AB4FF33EDC2E77B9C
:10024100FF60067A027956E4227A02795F20D504AA
:100251007A02795A224E614E002B494E46002D49B1
:100261004E4600E47A08F0A3DAFC7B00740722C052
:1002710083C082ECC0E0EDC0E0EEC0E0EFC0E0EA98
:1002810075F010A4CAABF075F04DA42BFBE435F06A
:10029100FCEA2410FAEB34C5FBEC34D9FCEDC2E7DF
:1002A100FF75F056A4F42411C5F0F434C58FF0A401
:1002B1002AE5F03BE43CF020E714120556D0E0FFBC
:1002C100D0E0FED0E0FDD0E0FC1204898014F404FB
:1002D100120556D0E0FFD0E0FED0E0FDD0E0FC12E8
:1002E1000380D082D083E0FAEDD2E7CD33EC332422
:1002F10082FBE4C3CF33CFCE33CECD33CD33DBF36B
:100301007B0775F00A846004F0A31B0AE5F0F0A3F3
:100311008FF0740AA4FFACF08EF0740AA42CFEAC2A
:10032100F050010C8DF0740AA42CFDE435F0F0A31B
:05033100DBDE74072271
:10033600E9D2E7C933E833F892D5EDD2E7CD33EC0D
:0703460033FC5002B2D52286
:10034D00EC30E7100FBF000C0EBE00080DBD000411
:10035D000BEB6014A2D5EB13FCED92E7FD2274FFBD
:10036D00FCFDFEFF22E480F8A2D574FF13FC7D8016
:03037D00E480EF2A
:10038000EC4D6011E8497017ED33EC3304600DE477
:10039000FCFFFEFD22E933E8330470F802036B1220
:1003A000033658046009E4CC248150062850090221
:1003B0000375284003020372C0E0EB4A7044B98021
:1003C00006D0E0FB020361EF4E701CBD8008EBFF1E
:1003D000EAFEE9FD80EBE98DF0A4FEE5F002046998
:1003E000E9CDF9EAFEEBFFEF89F0A4FCE5F0CE8958
:1003F000F0A42EFFE435F0CD89F0A42DFEE435F015
:100400008067EF4E7005BD80D780C3EF8BF0A4AC42
:10041000F0EE8BF0A42CFCE435F0F8EF8AF0A42C7D
:10042000E5F038FCE433CB8DF0A42CFCE5F03BF890
:10043000EE8AF0A42CFCE5F038F8E433CF89F0A480
:100440002CFCE5F038CF3400CE89F0A42FFFE5F086
:100450003EFEE433C98DF0A42EFEE5F039CD8AF0DE
:10046000A42FFFE5F03EFEE43DFD33D0E0FB500756
:100470000BBB000F020375EC2CFCEF33FFEE33FED9
:06048000ED33FD02034D07
:10048600020375EC5D046005E85904700302036B12
:10049600120336580460F6EC4860F2EC7004FDFE78
:1004A600FF22C860DB2481C85009C3986002500649
:1004B6000203729850CAF582E9294B4A7005AB824D
:1004C60002036175F0007C1A7880C3EF9BEE9AED0B
:1004D60099400DC3EF9BFFEE9AFEED99FDE842F0C1
:1004E600DC23ACF0D0E0FFD0E0FED0E0FDAB822014
:1004F600E7101BEB60BAEC2CFCEF33FFEE33FEED9E
:1005060033FD02034DE803F830E705C0F075F0004F
:10051600EF2FFFEE33FEED33FD40B830E7C280AA81
:100526003F8000004120000042C80000447A0000DD
:10053600461C400047C35000497424004B1896805F
:100546004CBEBC205A0E1BCA6753C21C749DC5AE56
:10055600FB60065407601C2323120584EB543860A5
:100566000912057012057F120380ECF8EDF9EEFA18
:10057600EFCB22EB12057F80F1543803241C900543
:1005860026FE93FC0EEE93FD0EEE930ECE93FF2207
:1029BA00020003E493A3F8E493A34003F68001F230
:1029CA0008DFF48029E493A3F85407240CC8C3331E
:1029DA00C4540F4420C8834004F456800146F6DFED
:1029EA00E4800B0102040810204080902E75E47EDA
:1029FA00019360BCA3FF543F30E509541FFEE493E2
:102A0A00A360010ECF54C025E060A840B8E493A3A8
:102A1A00FAE493A3F8E493A3C8C582C8CAC583CAD3
:102A2A00F0A3C8C582C8CAC583CADFE9DEE780BE8B
:012E8500004C
:10059600E709F608DFFA8046E709F208DFFA803E47
:1005A60088828C83E709F0A3DFFA8032E309F60834
:1005B600DFFA8078E309F208DFFA807088828C839C
:1005C600E309F0A3DFFA806489828A83E0A3F60850
:1005D600DFFA805889828A83E0A3F208DFFA804C2A
:1005E60080D280FA80C680D4806980F28033801001
:1005F60080A680EA809A80A880DA80E280CA80336A
:1006060089828A83ECFAE493A3C8C582C8CCC583E1
:10061600CCF0A3C8C582C8CCC583CCDFE9DEE780B1
:100626000D89828A83E493A3F608DFF9ECFAA9F030
:10063600EDFB2289828A83ECFAE0A3C8C582C8CC86
:10064600C583CCF0A3C8C582C8CCC583CCDFEADE9F
:10065600E880DB89828A83E493A3F208DFF980CC01
:1006660088F0EF60010E4E60C388F0ED2402B404FA
:100676000050B9F582EB2402B4040050AF232345A1
:0606860082239005E673DB
:10068C00BB010689828A83E0225002E722BBFE026C
:09069C00E32289828A83E493229F
:1006A500BB010CE58229F582E5833AF583E022500A
:1006B50006E92582F8E622BBFE06E92582F8E22254
:0D06C500E58229F582E5833AF583E493226E
:1006D200BB010689828A83F0225002F722BBFE0107
:0206E200F32201
:1006E400C2D5EC30E709B2D5E4C39DFDE49CFCEE31
:1006F40030E715B2D5E4C39FFFE49EFE1207FEC3A4
:10070400E49DFDE49CFC80031207FE30D507C3E49E
:060714009FFFE49EFE229F
:10071A00C5F0F8A3E028F0C5F0F8E582158270026A
:06072A001583E038F02207
:10073000A3F8E0C5F025F0F0E5821582700215837C
:06074000E0C838F0E822D9
:0E074600C3E49FFFE49EFEE49DFDE49CFC22C4
:10075400EB9FF5F0EA9E42F0E99D42F0EC6480C81C
:0607640064809845F022BC
:10076A00EB9FF5F0EA9E42F0E99D42F0E89C45F0E5
:01077A00225C
:0C077B00ECF0A3EDF0A3EEF0A3EFF022F1
:10078700A8828583F0D083D08212079E12079E121B
:10079700079E12079EE473E493A3C583C5F0C58340
:1007A700C8C582C8F0A3C583C5F0C583C8C582C8BC
:0107B700221F
:1007B800F8E0FBA3A3E0F925F0F0E58215827002CA
:0707C8001583E0FA38F0226E
:0907CF00EBF0A3EAF0A3E9F0222B
:1007D800D083D082F8E4937012740193700DA3A3B0
:1007E80093F8740193F5828883E4737402936860C4
:0607F800EFA3A3A380DFC4
:102DE000EFB40A07740D122DEB740A309811A899EC
:102DF000B8130CC2983098FDA899C298B811F63053
:072E000099FDC299F599222A
:102C7E009000F61208537810EC4D4E4F70047CA560
:102C8E007DA5C3EC13FCED13FDEE13FEEF13FF5009
:102C9E0010EC64CCFCED644CFDEE644EFEEF64CEA5
:102CAE00FFD8DF9000F612077BEE547FFE229000D5
:0D2CBE00F6EEF0EFA3F0A374A5F0A3F02252
:1007FE00BC000BBE0029EF8DF084FFADF022E4CCDF
:10080E00F875F008EF2FFFEE33FEEC33FCEE9DECA7
:10081E00984005FCEE9DFE0FD5F0E9E4CEFD22EDED
:10082E00F8F5F0EE8420D21CFEADF075F008EF2F37
:10083E00FFED33FD4007985006D5F0F222C398FD28
:05084E000FD5F0EA22C5
:0C085300E0FCA3E0FDA3E0FEA3E0FF2218
:00000001FF
