:030000000218588B
:0C185800787FE4F6D8FD75812102189F0E
:1007080052756E20447564652052756E005374638B
:1007180038204172636164650047616D65204F76DA
:1007280065720073636F72653A00256400746F70B8
:100738002073636F72653A003CDBC2DB3C3BD7C574
:10074800D73BF77B9B026F3FD3E21BFF6F029B7B7C
:10075800F7FF1BE2D33FFF8F7F1F7F8FFFC7B97E55
:100768007C1081C7FFEF0B03EFFF815A5B181881DC
:10077800000000000000000000000000000000066B
:100788003EFEE2C2FE80000000C0800000C0C080C3
:10079800002070C0E03070E0800000000000000021
:1007A8000000000000000000000000000000000041
:1007B8000000008080808000000000000000000031
:1007C8000000C0C0C0601EFEF0F8F7FBFCF8F8FEA1
:1007D800FDFCF7FCFCFEFDFFFCFCF4FCF4FEFEFE59
:1007E800DCF8FFFFF86000000000000000000000D7
:1007F80000000000000000000000000000000000F1
:10080800000107EFE061617376707377F6E6E7E35E
:10081800E6C0C001C3B3E0810303000010F8F0E0B4
:10082800841C7CFCFEC6060E0A1C7468B0E0867F39
:10083800FBF3B3331B1A1808000000000000000087
:100848008300FF3FFFFF7E3F0F0703010101000008
:100858000004040484070707070F0F1F1F1E7B7F70
:10086800FFFFFF7F7FFF00000010060C0000000064
:10087800000060E0A060C0800000000000F0FCF80C
:10088800000E3C7FFCF0E09010000000000000012A
:10089800030FFFFFFC71070F3FFCF0E080E03F0112
:1008A800030F3CF8634F1E7CE0C0E0603F1E0F0062
:1008B8000107070F0E0C1C1A1A0E8400000020FFF7
:1008C800FFFE7F3F1F0B0C0000000000000080802F
:1008D80080C0C0C080C1C1818103010202060C0C26
:1008E8000800011090A0BF000000183C7C08000020
:1008F800808000030F3E7EF3C3860CB8E0FF81FFC3
:100908008080808081030F3F7BFCF8F0F0F8787CD2
:10091800361F0D0700E0F0F0F0307163C1000000F1
:100928000000C0E0C0000000E0F0E0800000003CF3
:10093800F8F870E0C08006FEFE00073CE000001FEB
:100948000700E0ECFC0000000000000000010101CD
:1009580003030F3F3B3F3F3F3F3F1F07070EFEFE8E
:10096800FFFFBFFCFCF8F03E00000000000008009C
:100978000F1F3F3E3E5EFEFFFFFFFFFFFFFFFFFB37
:10098800F3830303030383C3361C9FBBB1E0C0E0BA
:1009980020202040406327FFBFFCE0FC3F3F307031
:1009A8007070E1E3E75E7C70603F1F070F1F1C3823
:1009B800011F3F3C03070F0F0F0400000D0C84A01C
:1009C800FCFFFFFFFAE0E0C0E0E0F0F8F8FCFCFC18
:1009D800FEFEFEFEFFFFF1F3E2E0C0C0E0E0C1F979
:1009E800F3E3C383830307FC000010303804040CCE
:1009F800424684CC7E26FFFFFFFFFF7F7F3FBF3D3F
:100A08007FFD13DE9C0E091C06C3F150DC040507AC
:100A18000F5EF8F0F0902060C3868F6F390C060ED9
:100A28000804C47CF08C04000000382E76F8D8F84E
:100A3800CCE4642400181C0E0602000301C0FBFF6E
:100A4800FFFFFFFFFFFFFFFFFFFFFF7F3F1F8FCF6E
:100A5800E7E7F7F3F3F3F3C3E7C7878F0F1F7FFFCA
:100A6800FFFFFFFFFFF0180F80C48800303070E0F0
:100A7800282C27212345497303F7EFE8639FDF9F5D
:100A88007E7D3CCFF3F9F2C7C7CFC4828FEFB2F3B4
:100A980073C9DB4F5F7DDFC2C3F37FFFFFFFFCBE7F
:100AA8002A379C8E1B1959B3FCDD5AEEE76B15915A
:100AB80080C1C3C0808080000000000000008FFF5C
:100AC800FFFFFFFFFFFFFFFFFFFFF0F0E2EFCF8F19
:100AD8008F0F073F3F3FFF7F07F3F9FCFEFEFFFF45
:100AE800FFFF7FF7F3E1F0D8D8FCFFFFFEFEFE7FA3
:100AF800182F6DE13E0181D9F3E3E1E4E6EBFFFF56
:100B0800FFFFFFFFFF1F67E78F9FE7F9FCFDFFFC73
:100B1800F9F2F3FCFCFE7E7EFFFFF8F3FAF8FCF82E
:100B2800FDF1C6CE0EFFFFFFFFFFFFFFFCFAF9F94C
:100B3800FEBD7BFEFFFFFFFFFE7E7EFCFEFEFFFF8D
:100B4800FFFFFFFFFFFFFFFFFFFFFFFFFFFFFFFFAD
:100B5800FFFFFFFEFEFEFCFCFCFF7F3F1F1F1F1F69
:100B68007FFFFFFFFFFFF7F7E7E3FFFFFFFDFC6CE9
:1018E4004400240000000050002A00000000000012
:1018F4000000000000000000000050003A0000005A
:101904000000000000000000000000000050000E75
:1019140000000000000000000000000000000000C3
:10192400410006014100231041004A3E41000500E8
:1019340041000D0041002800410029004200070039
:10194400004400090000000044001F0000000042A1
:10195400000305DC420000002841001E0241000291
:011964000082
:10168100E4FF121AFA7BFF7A0779087D027F1612AE
:1016910015187BFF7A0779157D077F1A1215181225
:1016A10017207FE87E03121A6C9000567408F0A38D
:1016B10074FFF0A37407F0A37478F07B80E4FDFF5E
:1016C1001217BD7FD07E07121A6CE4FF121AFAE4DA
:1016D100900002F0FF742A2FF582E43400F583E4D0
:1016E100F0743A2FF582E43400F583E4F0740E2FA0
:1016F100F582E43400F583E4F00FEFB410D79000E5
:10170100067401F09000037405F0A374DCF09000FE
:0E17110000E4F0A37428F0E4900007F0A3F0C9
:01171F0022A7
:10000E00121BDCC004C005C006AB07900003E0FE67
:10001E00A3E0FFEE3395E0FDFC90001FE0F8A3E0B7
:10002E00F9A3E0FAA3E02FFFEA3EFEE93DFDE83C2E
:10003E00FCD002D001D000D312130A50030200CB21
:10004E00121BDC90001F12131B900007E0FEA3E0B2
:10005E00FFC3940AEE9400500DEF9400EE9400400E
:10006E00059000068054D3EF9464EE94004030EF78
:10007E0094E8EE94035028900003740BF0A374B828
:10008E00F0900001E09400900000E06480948040C5
:10009E002CA3E024FFF0900000E034FFF0801ED38C
:1000AE00900008E094E8900007E09403400F900061
:1000BE0023E0FF900006E09F5003E004F0E4900080
:1000CE0053F0900006E0FF900053E0FEC39F504DAA
:1000DE00740E2EF582E43400F583E06401603690F0
:1000EE000053E0240EF582E43400F5837401F07DB4
:1000FE00787C00E4FFFE121B27900053E0FE242ABA
:10010E00F582E43400F583EFF0743A2EF582E43490
:10011E0000F583E4F0900053E004F080A5E4900035
:10012E0054F0900006E0FF900054E0FEC39F4003A1
:10013E00020707740E2EF582E43400F583E06401A5
:05014E0060030206FE43
:10015300900054E0FF243AF582E43400F583E00490
:10016300F0743A2FF582E43400F583E0C3943F4002
:100173000C743A2EF582E43400F583E4F0900054D5
:10018300E0243AF582E43400F583E0FF5407FEC32C
:1001930074089E900055F0A3EEF0EFD39400500343
:1001A3000202F7900054E0FE242AF582E43400F5BD
:1001B30083E0FF743A2EF582E43400F583E0FE1306
:1001C3001313541FFD121B53121C30900765E49345
:1001D300F4FF900055E0FEF8EF088002C313D8FC4B
:1001E300FF900056E0FEF874FF088002C333D8FC8A
:1001F3006FFF121C00900766E493F4FF900055E034
:10020300FEF8EF088002C313D8FCFF900056E0FE0F
:10021300F874FF088002C333D8FC6FFF121C0090F0
:100223000767E493F4FF900055E0FEF8EF088002BF
:10023300C313D8FCFF900056E0FEF874FF08800259
:10024300C333D8FC6FFF121C00900768E493F4FFDC
:10025300900055E0FEF8EF088002C313D8FCFF902E
:100263000056E0FEF874FF088002C333D8FC6FFF2A
:10027300121C00900769E493F4FF900055E0FEF828
:10028300EF088002C313D8FCFF900056E0FEF87419
:10029300FF088002C333D8FC6FFF121C0090076A6B
:1002A300E493F4FF900055E0FEF8EF088002C313D7
:1002B300D8FCFF900056E0FEF874FF088002C333B9
:1002C300D8FC6FFF121C0090076BE493F4FF9000BF
:1002D30055E0FEF8EF088002C313D8FCFF900056E8
:1002E300E0FEF874FF088002C333D8FC6FFF121CD2
:1002F30000121C43900054E0FF243AF582E43400DA
:10030300F583E0FEC3940850030204D0742A2FF54A
:1003130082E43400F583E0FFEE131313541F14FD3E
:10032300121B53121C3090075EE493F4FF900055A8
:10033300E0FEF8EF088002C313D8FCFF900056E0FC
:10034300FEF874FF088002C333D8FC6FFF90076583
:10035300E493F4FDA806088002C333D8FC4FFF12D0
:100363001C0090075FE493F4FF900055E0FEF8EF64
:10037300088002C313D8FCFF900056E0FEF874FF18
:10038300088002C333D8FC6FFF900766E493F4FD43
:10039300A806088002C333D8FC4FFF121C00900745
:1003A30060E493F4FF900055E0FEF8EF088002C389
:1003B30013D8FCFF900056E0FEF874FF088002C3D8
:1003C30033D8FC6FFF900767E493F4FDA806088019
:1003D30002C333D8FC4FFF121C00900761E493F46F
:1003E300FF900055E0FEF8EF088002C313D8FCFF2E
:1003F300900056E0FEF874FF088002C333D8FC6F08
:10040300FF900768E493F4FDA806088002C333D87D
:10041300FC4FFF121C00900762E493F4FF90005519
:10042300E0FEF8EF088002C313D8FCFF900056E00B
:10043300FEF874FF088002C333D8FC6FFF9007698E
:10044300E493F4FDA806088002C333D8FC4FFF12DF
:100453001C00900763E493F4FF900055E0FEF8EF6F
:10046300088002C313D8FCFF900056E0FEF874FF27
:10047300088002C333D8FC6FFF90076AE493F4FD4E
:10048300A806088002C333D8FC4FFF121C00900754
:1004930064E493F4FF900055E0FEF8EF088002C394
:1004A30013D8FCFF900056E0FEF874FF088002C3E7
:1004B30033D8FC6FFF90076BE493F4FDA806088024
:1004C30002C333D8FC4FFF121C00121C439000548C
:1004D300E0FF243AF582E43400F583E0FEC3941090
:1004E30050030205B5742A2FF582E43400F583E046
:1004F300FFEE131313541F24FEFD121B53121C3063
:1005030090075EE493F4FF900056E0FEF8EF088056
:1005130002C333D8FCFF121C0090075FE493F4FF7F
:10052300900056E0FEF8EF088002C333D8FCFF12B8
:100533001C00900760E493F4FF900056E0FEF8EF90
:10054300088002C333D8FCFF121C00900761E493B8
:10055300F4FF900056E0FEF8EF088002C333D8FCA6
:10056300FF121C00900762E493F4FF900056E0FE34
:10057300F8EF088002C333D8FCFF121C0090076316
:10058300E493F4FF900056E0FEF8EF088002C333D3
:10059300D8FCFF121C00900764E493F4FF9000560C
:1005A300E0FEF8EF088002C333D8FCFF121C0012F0
:1005B3001C43900054E0FF243AF582E43400F583B1
:1005C300E0F9D39438403B742A2FF582E43400F5E4
:1005D30083E0FF2407FDE433FC90004AE0FB7A004C
:1005E300C39DEC6480F87480985017EB2405FDEAF2
:1005F30033FCD3ED9F7480F86C984006900002742E
:1006030001F0E9D3943B500302068E900054E0249A
:100613002AF582E43400F583E0FFE9131313541F32
:1006230014FD121B53121C30E4FF121C00E4FF12D2
:100633001C00E4FF121C00E4FF121C00E4FF121C68
:1006430000E4FF121C00E4FF121C00121C43900084
:1006530054E0242AF582E43400F583E0FF7D071299
:100663001B53121C307F3C121C007F5A121C007F4C
:10067300A5121C007F55121C007FAA121C007F5A72
:10068300121C007F3C121C00121C43900054E0FF1C
:10069300243AF582E43400F583E0FE643E705C7432
:1006A3002A2FF582E43400F583E0FFEE131313548D
:1006B3001FFD121B53121C30E4FF121C00E4FF1237
:1006C3001C00E4FF121C00E4FF121C00E4FF121CD8
:1006D30000E4FF121C00E4FF121C00121C439000F4
:1006E30054E0240EF582E43400F583E4F09000082E
:0B06F300E004F07006900007E004F047
:0906FE00900054E004F002013008
:0107070022CF
:1013E00090004AE024FBFF7D07121B53121C30E4DF
:1013F000FF121C00E4FF121C00E4FF121C00E4FFBB
:10140000121C00E4FF121C00E4FF121C00E4FF1297
:101410001C00E4FF121C00E4FF121C00E4FF121C7D
:1014200000E4FF121C00E4FF121C00E4FF121C0089
:10143000E4FF121C00E4FF121C00121C4390000584
:10144000E0B4012590000DE0C39402501C90004AC6
:10145000E0FF2405FB9000567408F0A374FFF0A38E
:101460007407F0A3744A021511900005E0B4011C42
:1014700090004AE0FF2405FB9000567408F0A37426
:10148000FFF0A37407F0A3744F021511900005E05C
:10149000B4022490000DE0C39402501B90004AE077
:1014A000FF2405FB9000567408F0A374FFF0A374AA
:1014B00007F0A37454805A900005E0B4021B90001A
:1014C0004AE0FF2405FB9000567408F0A374FFF077
:1014D000A37407F0A37459803890000DE0C3940200
:1014E00090004AE0FF50162405FB9000567408F067
:1014F000A374FFF0A37407F0A3744080142405FBC9
:101500009000567408F0A374FFF0A37407F0A3745E
:0815100045F07D071217BD2212
:101AB6001215DB121BDC90002412131B12168190E8
:101AC600004B7401F0900006E0FF90004BE0D39FBE
:101AD60050217D407C00E4FFFE121B2790004BE066
:101AE600243AF582E43400F583EFF090004BE004ED
:031AF600F080D2AB
:011AF90022CA
:100EDD00121BDCC004C005C006AB07900000E0FE8D
:100EED00A3E0FFEE3395E0FDFC900009E0F8A3E0F0
:100EFD00F9A3E0FAA3E02FFFEA3EFEE93DFDE83C51
:100F0D00FCD002D001D000D312130A50030210DB23
:100F1D00121BDC90000912131BE4900005F020CD8C
:100F2D0007900028E0B401209000057402F09000B5
:100F3D004AE0FFD39400400B90001EE0FEEF9E9020
:100F4D00004AF0E4900028F020B107900029E0B4A9
:100F5D00011F9000057401F090004AE0C394795090
:100F6D000B90001EE0FF90004AE02FF0E490002966
:100F7D00F01213E012000E90000DE004F0E0C394A7
:100F8D00034002E4F0900002E0640160030210A54A
:100F9D00900051F0A3F0E0F8E4F0E8900051F0E497
:100FAD00F0A3F0900007E0FEA3E0FFD39400EE94D1
:100FBD00004008900051EEF0A3EFF07BFF7A077927
:100FCD00217D037F201215187BFF7A07792B7D0574
:100FDD007F2012151890005674FFF0A37407F0A32C
:100FED007432F0900007E0FFA3E0900059CFF0A31A
:100FFD00EFF07B017A00794B120BDD7B017A0079E2
:10100D004B7D057F461215187BFF7A0779357D06D6
:10101D007F2012151890005674FFF0A37407F0A3EB
:10102D007432F0900007E0FFA3E0900059CFF0A3D9
:10103D00EFF07B017A00794B120BDD7B017A0079A1
:10104D004B7D067F5A121518E490004FF0A3F090D7
:10105D00004FE0FEA3E0FFC394E8EE64809483505C
:10106D0028EF25E0FDEE33FCE4FFFE121B27AC0656
:10107D00AD077F017E00121966900050E004F070FC
:10108D000690004FE004F080C67FD07E07121A6CE8
:08109D00E4FF121AFA12168199
:1010A50090005674FFF0A37407F0A37432F090001B
:1010B50007E0FFA3E0900059CFF0A3EFF07B017AA2
:1010C50000794B120BDD7B017A00794BE4FD7F5CE7
:0610D500121518121BDCCD
:0110DB0022F2
:08000300121AB6120EDD80FB9B
:1010DC0070726573732041207374617274002020E8
:1010EC002020202020202020202020000000000094
:1010FC000000000808080808000060600000003CC0
:10110C004030403C003E5149453E0000427F40008B
:10111C00004261514946002141454B3100181412DF
:10112C007F10002745454539003C4A4949300001AC
:10113C007109050300364949493600064949291EFB
:10114C00000036360000007C1211127C007F4949E9
:10115C004936003E41414122007F4141221C007F23
:10116C0049494941007F09090901003E4149497A31
:10117C00007F0808087F0000417F410000204041AB
:10118C003F01007F08142241007F40404040007F17
:10119C00020C027F007F0408107F003E4141413E5B
:1011AC00007F09090906003E4151215E007F0919A3
:1011BC0029460046494949310001017F0101003FA0
:1011CC004040403F001F2040201F003F4038403F20
:1011DC00002054545478007F484444380038444428
:1011EC00442000384444487F0038545454180008B4
:1011FC007E0901020018A4A4A47C007F08040478D2
:10120C000000447D4000004080847D00007F102859
:10121C0044000000417F4000007C04180478007CEE
:10122C000804047800384444443800FC242424186E
:10123C000018242418FC007C0804040800485454AA
:10124C00542000043F444020003C4040207C001CC3
:10125C002040201C003C4030403C004428102844D6
:0C126C00001CA0A0A07C00324959513E9B
:10172000803A20B0030217BC900053E0F8A3E0F920
:10173000A3E0FAA3E0FB90007BE0FCA3E0FDA3E0C4
:10174000FEA3E0C39BFFEE9AFEED99FDEC98FCE44E
:101750007BD07A07F9F8C312130A501690007BE089
:10176000FCA3E0FDA3E0FEA3E0FF90005312131BD7
:1017700080B0900053E0F8A3E0F9A3E0FAA3E0FB07
:1017800090007BE0FCA3E0FDA3E0FEA3E0C39BFF91
:10179000EE9AFEED99FDEC98FCE47BE87A03F9F80B
:1017A000C312130A7BFF50067A1079DC80047A108A
:0C17B00079EA7D047F141215180217223C
:0117BC00220A
:0E196600900053EEF0A3EFF0A3ECF0A3EDF031
:10197400E4FFFEC3900054E09FEE6480F8900053AF
:10198400E06480984049D2CCE4FDFCD3900056E05A
:101994009DEC6480F8900055E06480984009000054
:1019A4000DBD00010C80E4C2CCE4FCFDD3900056D4
:1019B400E09DEC6480F8900055E064809840090054
:0F19C400000DBD00010C80E40FBF00010E80A4D8
:0119D30022F1
:03000B00021A21B5
:101A2100C0E0C0F0C083C082C0D075D000C000C08B
:101A310004C005C006C00790007BE0FCA3E0FDA345
:101A4100E0FEA3E02401FFE43EFEE43DFDE43CFCB6
:101A510090007B12131BD007D006D005D004D00014
:0B1A6100D0D0D082D083D0F0D0E03293
:101BB700438E805389F0758A40758CA2C28DD28C72
:051BC700D2A9D2AF22FB
:0F1BDC0090007BE0FCA3E0FDA3E0FEA3E0FF226E
:101B2700900057EEF0A3EFF0A3ECF0A3EDF012193D
:101B3700D4900059E0FCA3E0FD1212BE900057E0DC
:0C1B4700FEA3E0FFC3ED9FFFEC9EFE221A
:081A6C00900053EEF0A3EFF02F
:101A7400121BDC90005512131B900055E0F8A3E0F4
:101A8400F9A3E0FAA3E0FB90007BE0FCA3E0FDA354
:101A9400E0FEA3E0C39BFBEE9AFAED99F9EC98F80B
:101AA400900053E0FEA3E0FFE4FCFDC312130A40E0
:011AB400C869
:011AB500220E
:0C1C060090FE82E030E6F9E054BFF022CE
:091C1E0090FE817401F0021C0625
:031C1200121BEBB7
:091C150090FE817403F0021C062C
:091C270090FE817406F0021C0617
:0E1BEB0090FE86EFF090FE817402F0021C0660
:101BA100121C1E121C12AF05121C12AF03121BEBEA
:061BB100121C15021C27A6
:1015DB00E4F5B2F5B1F5CAF5C975BA8090FE807421
:1015EB00C1F090FE82E4F0121BB77FAE121BCCE46D
:1015FB00FF121BCC7F10121BCC7F40121BCC7F81A8
:10160B00121BCC7FCF121BCC7FA1121BCC7FC8121D
:10161B001BCC7FA6121BCC7FA8121BCC7F3F121BAF
:10162B00CC7FD3121BCCE4FF121BCC7FD5121BCC6F
:10163B007F80121BCC7FD9121BCC7FF1121BCC7F6E
:10164B00DA121BCC7F12121BCC7FDB121BCC7F4020
:10165B00121BCC7F20121BCC7F02121BCC7F8D1256
:10166B001BCC7F14121BCC7FA4121BCC7FA6121B8E
:06167B00CC7FAF021BCC86
:031C3D00021C1E68
:031C4000021C275C
:071BF900AE07121C3D7F78CE
:061C0000121BEB021C1593
:101BCC00121BF9E4FF121C00AF06121C00021C4091
:081C3000121BFB7F40021C00A7
:031C4300021C4040
:101B5300121BF9E4FF121C00ED24B0FF121C00EE6F
:101B630054F0C4540F4410FF121C00EE540F4401F0
:071B7300FF121C00021C40E0
:021AFA00AD0736
:101AFC00E4FCEC24B0FF121BCCE4FF121BCC7F10D7
:101B0C00121BCC121C30E4FEAF05121C000EEEB4FE
:0A1B1C0080F6121C430CECB408D84C
:011B2600229C
:10151800900057EFF0A3EDF0A3EBF0A3EAF0A3E9F6
:01152800F0D2
:10152900E490005EF0900059E0FBA3E0FAA3E0F933
:1015390090005EE0F5827583001212917003021526
:10154900DA24E090005CF0D394004004E024F4F045
:1015590090005CE0D3940F4004E024FAF090005C22
:10156900E0D394284004E024F7F0900057E0D394A6
:101579007E4006E4F0A3E004F0900057E0FFA3E00A
:10158900FD121B53121C30E490005DF090005DE0E9
:10159900FDC39406502890005CE075F006A47C0019
:1015A9002DFFEC35F0FE74F82FF974103EFA7BFF2D
:1015B900121C38121C0090005DE004F080CE121C51
:1015C90043900057E02406F090005EE004F0021515
:0115D9002EE3
:0115DA0022EE
:0A17BD00900053EFF0900055EBF0A0
:1017C700E490005AF0A3F0900056E0FF5407700829
:1017D700EF131313541F800A900056E0131313548A
:1017E7001F0490005CF090005CEDF0900056E0FF65
:0917F70090005CE0FDC39F505717
:10180000900053E0FF121B53121C30900053E090E5
:10181000005DF0900055E0FF90005DE0C39F502C0C
:10182000900057E0FBA3E0FAA3E0F9A3E475F00110
:101830001212F4FEE925F0F9EA3EFA121C38EFF430
:0F184000FF121C0090005DE004F080C7121C43F3
:08184F0090005CE004F0809BB6
:01185700226E
:051C3800121278FF22EA
:10186400020003E493A3F8E493A34003F68001F297
:1018740008DFF48029E493A3F85407240CC8C33385
:10188400C4540F4420C8834004F456800146F6DF54
:10189400E4800B01020408102040809018E4E47EE8
:1018A400019360BCA3FF543F30E509541FFEE49349
:1018B400A360010ECF54C025E060A840B8E493A310
:1018C400FAE493A3F8E493A3C8C582C8CAC583CA3B
:1018D400F0A3C8C582C8CAC583CADFE9DEE780BEF3
:011965000081
:10127800BB010689828A83E0225002E722BBFE0274
:09128800E32289828A83E49322A7
:10129100BB010CE58229F582E5833AF583E0225012
:1012A10006E92582F8E622BBFE06E92582F8E2225C
:0D12B100E58229F582E5833AF583E4932276
:1012BE00C2D5EC30E709B2D5E4C39DFDE49CFCEE4B
:1012CE0030E715B2D5E4C39FFFE49EFE121339C377
:1012DE00E49DFDE49CFC800312133930D507C3E472
:0612EE009FFFE49EFE22BA
:1012F400A3F8E0C5F025F0F0E582158270021583AD
:06130400E0C838F0E82209
:10130A00EB9FF5F0EA9E42F0E99D42F0E89C45F039
:01131A0022B0
:0C131B00ECF0A3EDF0A3EEF0A3EFF02245
:100B7800E5082456F582E43400F583E00508229060
:100B88000053300703900056E475F00112139A02DF
:100B980012782000E97F2ED2008018EF540F24909D
:100BA800D43440D4FF30040BEF24BFB41A005003F0
:100BB8002461FFE50960021509050CE50C700205C2
:100BC8000B30070E900053E475F00112139AEF02F0
:100BD8001327021B7A7403D2078003E4C207F508BF
:100BE8009000531213B1E4F509F50BF50CE5096013
:100BF800077F20120BBB80F5750AFFC201C200C235
:100C080002C203C205C206C208120B87FF700D306C
:100C180007057F00120BCCAF0CAE0B22B4255FC2C8
:100C2800D5C204120B87FF24D0B40A00501A75F0FD
:100C38000A780930D50508B6FF0106C6A426F620AD
:100C4800D5047002D20380D924CFB41A00EF50041F
:100C5800C2E5D204020DCDD20180C6D20080C0D236
:100C68000280BCD2D580BAD20580B47F20120BBBDB
:100C78002002077401B5090040F1120B78FF120B2E
:100C8800BB020BF5D208D2068095120B78FB120B2B
:100C980078FA120B78F94A4B7006799E7A0E7BFF28
:100CA80020022EE509602A7E008E827583001212CA
:100CB8009160060EEE650A70F0C2D5EBC0E0EAC09E
:100CC800E0E9C0E0EE120E14D0E0F9D0E0FAD0E08E
:100CD800FB121278FF60AAEBC0E0EAC0E0E9C0E0CE
:100CE800120BBBD0E02401F9D0E03400FAD0E0FBCD
:100CF800E50A0460DCD50AD980877BFF7A0E791073
:100D0800D202809C791080027908C206C208800845
:100D1800D2D5790A8004790AC2D5E50A047002F5A9
:100D28000AE4FAFDFEFF120B78FC7B08200113127F
:100D38000B78FD7B1030000A120B78FE120B78FF3F
:100D48007B20EC3382D592D55013C3E43000069F44
:100D5800FFE49EFEE42001039DFDE49CFCE4CBF847
:100D6800C201EC700CCFCECDCCE824F8F870F3803B
:100D780017C3EF33FFEE33FEED33FDEC33FCEB33FB
:100D8800FB994002FB0FD8E9EB300105F8D0E0C42D
:100D980048B201C0E00AEC4D4E4F78207B0070C28B
:100DA800EAB50A0040BCC0E0120E16D0F0D0E02030
:100DB8000104C4C0E0C4B201C0F0120BA4D0F0D545
:100DC800F0EB020BF51213BA0C92530D0C580C638E
:100DD8004C0C5F420D104F0D18440D18490C784308
:080DE8000D1E550D02460D021F
:100DF000450D02470EBE500C672D0C6B2E0C8E2B32
:100E00000C6F230C8C200EA72A0C274800000C86A0
:100E10003F3F3F00790AA2D5200314300509B910DD
:100E2000020404B9080104A2D520060250010420DE
:100E300002689202B509005034C0E07F20300319E7
:100E40007F30A20272067205500F120E6DC202C2EE
:100E500006C205C2087F30800F300503E9C0E012EA
:100E60000BBB300503D0E0F9D0E0B509CC30051755
:100E70007F30B9100C120BBB7F583004077F78808D
:100E800003B90803120BBB3002057F2D020BBB7F99
:100E9000202008F87F2B2006F322920280CF286EB4
:100EA000756C6C2900D201120B783001F8C2017800
:100EB0000930D50108F6020C272D50434958120B72
:100EC000782403B405004001E4900EB993120BACF2
:0D0ED000743A120BACD203750904020D0C2C
:1019D40090007F12138E7810EC4D4E4F70047CA54E
:1019E4007DA5C3EC13FCED13FDEE13FEEF13FF50C6
:1019F40010EC64CCFCED644CFDEE644EFEEF64CE62
:101A0400FFD8DF90007F12131BEE547FFE2290005C
:0D1A14007FEEF0EFA3F0A374A5F0A3F02285
:10132700BB010689828A83F0225002F722BBFE01A5
:02133700F3229F
:10133900BC000BBE0029EF8DF084FFADF022E4CC98
:10134900F875F008EF2FFFEE33FEEC33FCEE9DEC61
:10135900984005FCEE9DFE0FD5F0E9E4CEFD22EDA7
:10136900F8F5F0EE8420D21CFEADF075F008EF2FF1
:10137900FFED33FD4007985006D5F0F222C398FDE2
:051389000FD5F0EA227F
:0C138E00E0FCA3E0FDA3E0FEA3E0FF22D2
:10139A00F8E0FBA3A3E0F925F0F0E58215827002DC
:0713AA001583E0FA38F02280
:0913B100EBF0A3EAF0A3E9F0223D
:1013BA00D083D082F8E4937012740193700DA3A3C2
:1013CA0093F8740193F5828883E4737402936860D6
:0613DA00EFA3A3A380DFD6
:101B7A00EFB40A07740D121B85740A309811A899DC
:101B8A00B8130CC2983098FDA899C298B811F630CB
:071B9A0099FDC299F59922A3
:00000001FF
