:03000000021DCA14
:0C1DCA00787FE4F6D8FD758121021E111F
:1017F80070726573732041207374617274002020C5
:1018080020202020202020202020200025640000E7
:1018180000000000000008080808080000606000D8
:1018280000003C4030403C003E5149453E000042EB
:101838007F4000004261514946002141454B31003B
:101848001814127F10002745454539003C4A49497C
:101858003000017109050300364949493600064937
:1018680049291E000036360000007C1211127C0047
:101878007F49494936003E41414122007F4141228A
:101888001C007F49494941007F09090901003E417F
:1018980049497A007F0808087F0000417F4100001D
:1018A8002040413F01007F08142241007F40404012
:1018B80040007F020C027F007F0408107F003E4139
:1018C80041413E007F09090906003E4151215E0061
:1018D8007F091929460046494949310001017F011C
:1018E80001003F4040403F001F2040201F003F4074
:1018F80038403F002054545478007F48444438000E
:10190800384444442000384444487F0038545454F0
:101918001800087E0901020018A4A4A47C007F080E
:101928000404780000447D4000004080847D00006D
:101938007F102844000000417F4000007C04180408
:1019480078007C0804047800384444443800FC24B7
:101958002424180018242418FC007C080404080017
:10196800485454542000043F444020003C40402048
:101978007C001C2040201C003C4030403C00442897
:0F198800102844001CA0A0A07C00324959513EF9
:101C9200803A20B003021D2E90000CE0F8A3E0F978
:101CA200A3E0FAA3E0FB90008BE0FCA3E0FDA3E03D
:101CB200FEA3E0C39BFFEE9AFEED99FDEC98FCE4D7
:101CC2007BD07A07F9F8C3120750501690008BE0C8
:101CD200FCA3E0FDA3E0FEA3E0FF90000C1207616D
:101CE20080B090000CE0F8A3E0F9A3E0FAA3E0FBD7
:101CF20090008BE0FCA3E0FDA3E0FEA3E0C39BFF0A
:101D0200EE9AFEED99FDEC98FCE47BE87A03F9F893
:101D1200C31207507BFF50067A1779F880047A18AD
:0C1D220079067D047F14121A87021C94BD
:011D2E002292
:1020F30090001574FFF0A37418F0A37414F0A3EE0A
:07210300F0A3EFF0020FC88A
:0121BE0022FE
:0E1E560090000CEEF0A3EFF0A3ECF0A3EDF083
:101E6400E4FFFEC390000DE09FEE6480F890000C48
:101E7400E06480984049D2CCE4FDFCD390000FE0AC
:101E84009DEC6480F890000EE064809840090000A6
:101E94000DBD00010C80E4C2CCE4FCFDD390000F26
:101EA400E09DEC6480F890000EE0648098400900A6
:0F1EB400000DBD00010C80E40FBF00010E80A4E3
:011EC30022FC
:03000B00021F6071
:101F6000C0E0C0F0C083C082C0D075D000C000C047
:101F700004C005C006C00790008BE0FCA3E0FDA3F1
:101F8000E0FEA3E02401FFE43EFEE43DFDE43CFC72
:101F900090008B120761D007D006D005D004D00086
:0B1FA000D0D0D082D083D0F0D0E0324F
:10212000438E805389F0758A40758CA2C28DD28C03
:05213000D2A9D2AF228C
:0F21450090008BE0FCA3E0FDA3E0FEA3E0FF22EF
:1020520090000CEEF0A3EFF0A3ECF0A3EDF0121F52
:102062001390000EE0FCA3E0FD1206F690000CE0D7
:0C207200FEA3E0FFC3ED9FFFEC9EFE22EA
:081FAB0090000CEEF0A3EFF032
:101FB30012214590000E12076190000EE0F8A3E095
:101FC300F9A3E0FAA3E0FB90008BE0FCA3E0FDA300
:101FD300E0FEA3E0C39BFBEE9AFAED99F9EC98F8C7
:101FE30090000CE0FEA3E0FFE4FCFDC312075040A9
:011FF300C825
:011FF40022CA
:0C217E0090FE82E030E6F9E054BFF02251
:0921960090FE817401F002217E2B
:03218A00122163BC
:09218D0090FE817403F002217E32
:09219F0090FE817406F002217E1D
:0E21630090FE86EFF090FE817402F002217E65
:10210A0012219612218AAF0512218AAF0312216386
:06211A0012218D02219F3D
:101B4A00E4F5B2F5B1F5CAF5C975BA8090FE8074AC
:101B5A00C1F090FE82E4F01221207FAE122135E41A
:101B6A00FF1221357F101221357F401221357F81E6
:101B7A001221357FCF1221357FA11221357FC8125C
:101B8A0021357FA61221357FA81221357F3F1221E8
:101B9A00357FD3122135E4FF1221357FD512213545
:101BAA007F801221357FD91221357FF11221357FAD
:101BBA00DA1221357F121221357FDB1221357F405F
:101BCA001221357F201221357F021221357F8D1295
:101BDA0021357F141221357FA41221357FA61221C7
:061BEA00357FAF0221353A
:0321B5000221966E
:0321B80002219F62
:07217100AE071221B57F78D3
:0621780012216302218D1B
:10213500122171E4FF122178AF061221780221B82D
:080003001221737F40022178F5
:0321BB000221B846
:10207E00122171E4FF122178ED24B0FF122178EEC7
:10208E0054F0C4540F4410FF122178EE540F440143
:07209E00FF1221780221B8B6
:02202500AD0705
:10202700E4FCEC24B0FF122135E4FF1221357F10C8
:10203700122135120003E4FEAF051221780EEEB42B
:0A20470080F61221BB0CECB408D89F
:01205100226C
:101A8700900010EFF0A3EDF0A3EBF0A3EAF0A3E9C9
:011A9700F05E
:101A9800E4900017F0900012E0FBA3E0FAA3E0F94D
:101AA800900017E0F5827583001206A57003021BEB
:101AB8004924E0900015F0D394004004E024F4F0A9
:101AC800900015E0D3940F4004E024FAF09000153C
:101AD800E0D394284004E024F7F0900010E0D39479
:101AE8007E4006E4F0A3E004F0900010E0FFA3E0DD
:101AF800FD12207E120003E4900016F0900016E01C
:101B0800FDC394065028900015E075F006A47C00EB
:101B18002DFFEC35F0FE74172FF974183EFA7BFF91
:101B28001221B0122178900016E004F080CE122124
:101B3800BB900010E02406F0900017E004F0021AB1
:011B48009DFF
:011B49002279
:0A1D2F00900080EFF0900082EBF0CE
:101D3900E4900087F0A3F0900083E0FF5407700857
:101D4900EF131313541F800A900083E013131354E5
:101D59001F04900089F0900089EDF0900083E0FF66
:091D6900900089E0FDC39F505772
:101D7200900080E0FF12207E120003900080E0902D
:101D8200008AF0900082E0FF90008AE0C39F502C0E
:101D9200900084E0FBA3E0FAA3E0F9A3E475F0016C
:101DA20012072CFEE925F0F9EA3EFA1221B0EFF40F
:0F1DB200FF12217890008AE004F080C71221BB55
:081DC100900089E004F0809B12
:011DC90022F7
:0521B00012068CFF2265
:10163C0047616D65204F7665720073636F72653A12
:10164C0000746F702073636F72653A0042205220F1
:10165C00452041204B204F205520540053746338B3
:10166C002041726361646500000000000000000806
:10167C0008080808000060600000003C4030403C56
:10168C00003E5149453E0000427F400000426151FE
:10169C004946002141454B31001814127F10002798
:1016AC0045454539003C4A4949300001710905035B
:1016BC0000364949493600064949291E000036368C
:1016CC000000007C1211127C007F49494936003E13
:1016DC0041414122007F4141221C007F494949413F
:1016EC00007F09090901003E4149497A007F080839
:1016FC00087F0000417F4100002040413F01007FF6
:10170C0008142241007F40404040007F020C027FC1
:10171C00007F0408107F003E4141413E007F0909D3
:10172C000906003E4151215E007F091929460046F9
:10173C00494949310001017F0101003F4040403FD0
:10174C00001F2040201F003F4038403F00205454D1
:10175C005478007F484444380038444444200038CE
:10176C004444487F00385454541800087E09010240
:10177C000018A4A4A47C007F080404780000447D15
:10178C004000004080847D00007F10284400000051
:10179C00417F4000007C04180478007C0804047825
:1017AC0000384444443800FC242424180018242411
:1017BC0018FC007C0804040800485454542000040D
:1017CC003F444020003C4040207C001C2040201C1A
:1017DC00003C4030403C004428102844001CA0A091
:0C17EC00A07C00324959513E0000000072
:1020A5004100720041007F104100733E41007432CF
:1020B50042007DFFFF42007BFFFF440077000000E8
:0620C5000042007500005E
:0821A80012215412081480FBFF
:0F215400121B4A121BF0122145900077020761FF
:070814007F287E00121FABDC
:10081B0078067C007D017BFF7A1779F47E007F04DC
:10082B0012066612214590007712076120CD359094
:10083B00007FE0FFC374809FFF900072E0C39F5066
:10084B0003E004F0900072E0C39F5003E004F090CB
:10085B00007FE0FFC374809FFF900072E0C39F5046
:10086B0003E004F020B124900072E0D39400400325
:10087B00E014F0900072E0D394004003E014F09089
:10088B000072E0D394004003E014F0900074E0FF9A
:10089B007E0090007DE0FCA3E0FD2FFBEE3CFAC355
:1008AB00EB9436EA648094805006ED64014C60183A
:1008BB00C3EF9DFFEE9CFED3EF9401EE648094801A
:1008CB00400EBCFF0BBDFF08900074E02DF08017AD
:1008DB0090007DE0FEA3E0FF7CFF7DFF1206E4901D
:1008EB00007DEEF0A3EFF0900073E0FF7E00900030
:1008FB007BE0FCA3E0FD2FFBEE3CFAC3EB947FEA1D
:10090B00648094805006ED64014C6018C3EF9DFF2A
:10091B00EE9CFED3EF9401EE64809480400EBCFFFE
:10092B000BBDFF08900073E02DF0801790007BE06B
:10093B00FEA3E0FF7CFF7DFF1206E490007BEEF050
:10094B00A3EFF0900074E0FFD3940A5003020A99CE
:10095B0090007EE02FFF90007DE03400FEC3EF940B
:10096B0036EE648094805003020A99900072E0FF87
:10097B00A3E0FE9F401D90007FE0FD900072E02DF4
:10098B00FDE433FCEED39DEC6480F8748098500347
:03099B00020A99B4
:10099E00E490000AF0A3F0E07F00FE90000AF0A3BE
:1009AE00EFF090000AEEF0A3EFF0900075E0FCA3DC
:1009BE00E0FDD39FEE6480F8EC64809840089000D0
:1009CE000AECF0A3EDF0E4FF1220257BFF7A1679F6
:1009DE003C7D037F20121A877BFF7A1679467D05B0
:1009EE007F20121A87900075E0FEA3E0FF7B017A4C
:1009FE00007906900011740AF01220F37B017A0040
:100A0E0079067D057F46121A877BFF7A16794D7D12
:100A1E00067F20121A8790000AE0FEA3E0FF7B01FA
:100A2E007A007906900011740AF01220F37B017A95
:100A3E000079067D067F5A121A87E4900000F0A313
:100A4E00F0900000E0FEA3E0FFC394E8EE64809413
:100A5E00835028EF25E0FDEE33FCE4FFFE1220521A
:100A6E00AC06AD077F017E00121E56900001E00419
:100A7E00F070CE900000E004F080C67FE87E031296
:080A8E001FAB1221BE121BF088
:100A9600020B5490007FE0C313FF900072E02FFF1B
:100AA600E433FEA3E0C39FEE6480F8748098502878
:100AB600A3E0FF940A402190007EE02FFF90007D86
:100AC600E03400FEC3EF9436EE64809480400974EF
:100AD600FF90007BF0A3806A90007FE0C313FF9035
:100AE6000072E02FFFE433FEA3E0D39FEE6480F8AC
:100AF6007480984029A3E0FFD3940A402190007E99
:100B0600E02FFF90007DE03400FEC3EF9436EE64E4
:100B1600809480400990007BE4F0A3048024900038
:100B260074E0FF90007EE02FFF90007DE03400FE31
:100B3600C3EF9436EE64809480401390007BE4F01B
:100B4600A304F07D587C027F147E00121E5690008E
:100B560074E0FF90007EE02FFF90007DE03400FE01
:100B66007C007D081206F6AC06AD07EC12008C126E
:100B76001997E4FBFAF9784012000E70389000736A
:100B8600E0131313541FFF2462F582E43400F58347
:100B9600E064016003020C8774622FF582E434007E
:100BA600F583E4F0900076E004F0706E900075E056
:100BB60004F0020C81900074E0FF90007EE02FFFAD
:100BC60090007DE03400FE7C007D081206F6AC063F
:100BD600AD07EC12008C121997E4FBFA7980783F86
:100BE60012000E7037900073E0131313541FFF2486
:100BF60052F582E43400F583E064016003020C8759
:100C060074522FF582E43400F583E4F0900076E028
:100C160004F07006900075E004F0805F900074E0C8
:100C2600FF90007EE02FFF90007DE03400FE7C0008
:100C36007D081206F6AC06AD07EC12008C12199769
:100C4600E4FBFAF9F812000E7037900073E0131304
:100C560013541FFF2442F582E43400F583E0B40107
:100C66002074422FF582E43400F583E4F090007698
:100C7600E004F07006900075E004F01213E6020B33
:100C860054900075E0FEA3E0FF7C007D301206F66E
:040C9600ED4C703D74
:100C9A0090000AF090000AE0FFC39410502F7442AB
:100CAA002FF582E43400F5837401F074522FF58233
:100CBA00E43400F5837401F074622FF582E43400A1
:0D0CCA00F5837401F090000AE004F080C78B
:100CD700E4FDFF12207E120003E4900002F0A3F06F
:100CE700900002E0FEA3E0FFC39410EE64809480BE
:100CF700502774422FF58274003EF583E0B4010457
:100D07007F018002E4FF121EC4900003E004F0702C
:100D1700CF900002E004F080C71221BB7D01E4FF01
:100D270012207E120003E4900002F0A3F09000026C
:100D3700E0FEA3E0FFC39410EE6480948050277414
:100D4700522FF58274003EF583E0B401047F0180E1
:100D570002E4FF121EC4900003E004F070CF90007D
:100D670002E004F080C71221BB7D02E4FF12207E5F
:100D7700120003E4900002F0A3F0900002E0FEA34B
:100D8700E0FFC39410EE64809480502774622FF5BF
:100D97008274003EF583E0B401047F018002E4FF22
:100DA700121EC4900003E004F070CF900002E0042C
:100DB700F080C71221BB7D03E4FF12207E120003DF
:100DC700E4900000F0A3F0E4FF122178900001E026
:100DD70004F07006900000E004F0C3900001E09476
:100DE70080900000E06480948040DC1221BB7D0489
:100DF700E4FF12207E120003E4900000F0A3F0E469
:100E0700FF122178900001E004F07006900000E0E6
:100E170004F0C3900001E09480900000E0648094A7
:100E27008040DC1221BB7D05E4FF12207E12000307
:100E3700E4900000F0A3F0E4FF122178900001E0B5
:100E470004F07006900000E004F0C3900001E09405
:100E570080900000E06480948040DC1221BB7D0616
:100E6700E4FF12207E120003E4900000F0A3F0E4F8
:100E7700FF122178900001E004F07006900000E076
:100E870004F0C3900001E09480900000E064809437
:100E97008040DC1221BB7D07E4FF12207E12000395
:100EA700E4900000F0A3F0E4FF122178900001E045
:100EB70004F07006900000E004F0C3900001E09495
:100EC70080900000E06480948040DC1221BB900099
:100ED70073E0FFA3E0FE131313541FFD12207E904F
:100EE7000004E4F0A304F0120003900074E0540738
:100EF70004FF900004E0FEA3E0A807088005C333C1
:100F0700CE33CED8F9FF900004EEF0A3EFF0122114
:100F1700781221BB121FF5122145C004C005C00677
:100F2700C007900077E0FCA3E0FDA3E0FEA3E0FB91
:100F3700AA06A905A804D007D006D005D004C3EF98
:100F47009BFFEE9AFEED99FDEC98FCE47B1EFAF907
:0C0F5700F8D3120750500302081B80BBA7
:101BF000E4FF1220257BFF7A1679587D027F1012B0
:101C00001A877BFF7A1679687D077F16121A87126A
:101C10001C927FD07E07121FABE4FF74422FF58227
:101C2000E43400F5837401F074522FF582E434003B
:101C3000F5837401F074622FF582E43400F5837447
:101C400001F00FEFB410D490007F7410F090007387
:101C50007440F0A37432F074FF90007BF0A3F0A303
:101C6000F0A3F0E4900075F0A3F090007FE0FFC3D4
:101C700074809FFDE49400FCE4FFFE12205290006B
:101C800072EFF090007FE0C313FF900072E02FA38B
:011C9000F063
:011C91002230
:1013E600900074E0FF7E0090007DE0FAA3E0FB2F02
:1013F600FFEE3AFE7C007D081206F6ED64074C709F
:1014060053900073E0FF90007CE02FFF90007BE09C
:101416003400FE7C007D081206F6ED64074C70343D
:10142600EB64014A700302157C90007DE0B4FF175F
:10143600A3E0B4FF1290007BE07004A3E0640170A7
:101446000690007D02157C90007BE4F0A304F0A3D7
:10145600E402157C900074E0FF7E0090007DE0FAC7
:10146600A3E0FB2FFFEE3AFE7C007D081206F6EDA8
:1014760064074C704C900073E0FF90007CE02FFFF7
:1014860090007BE03400FE7C007D081206F6ED4CF1
:10149600702FEB64014A7002806990007DE0B4FF12
:1014A60013A3E0B4FF0E90007BE0B4FF07A3E0B403
:1014B600FF02800874FF90007BF0A3F0A3E40215FE
:1014C600F5900074E0FF7E0090007DE0FAA3E0FB5B
:1014D6002FFFEE3AFE7C007D081206F6ED4C7052A8
:1014E600900073E0FF90007CE02FFF90007BE034DB
:1014F60000FE7C007D081206F6ED4C7035BAFF083A
:10150600BBFF0574FF02160490007DE07004A3E0A3
:101516006401701290007BE0B4FF0BA3E0B4FF06F9
:1015260074FFA302160474FF90007BF0A3F0A302DD
:101536001604900074E0FF7E0090007DE0FAA3E0C0
:10154600FB2FFFEE3AFE7C007D081206F6ED4C708E
:1015560053900073E0FF90007CE02FFF90007BE04B
:101566003400FE7C007D081206F6ED64074C7034EC
:10157600BAFF05BBFF02807790007DE07004A3E010
:101586006401701390007BE07004A3E064017007AF
:1015960074FF90007D806790007BE4F0A304F074F4
:1015A600FFA3805A900074E0FF90007EE02FFF902A
:1015B600007DE03400FE7C007D081206F6ED64072F
:1015C6004C7002802AED4C700774FF90007D802ECF
:1015D600900073E0FF90007CE02FFF90007BE034EA
:1015E60000FE7C007D081206F6ED64074C7006F0DE
:1015F600A304F08036ED4C700A74FF90007BF0A3D4
:10160600F0802890007BE0FEA3E0FF7CFF7DFF12C8
:1016160006E490007BEEF0A3EFF0A3E0FEA3E0FF6C
:101626001206E490007DEEF0A3EFF07D2C7C017FA6
:061636001E7E00021E569C
:101FF500900072E0FF7D0712207E12000390000C16
:102005007401F090007FE0FF90000CE0C39F500D3D
:102015007F0312217890000CE004F080E60221BBDA
:101EC400EF64017021FF1221787F7E1221787F7EDA
:101ED4001221787F7E1221787F7E1221787F7E12F4
:101EE40021787F7E8020E4FF122178E4FF1221789C
:101EF400E4FF122178E4FF122178E4FF122178E450
:0F1F0400FF122178E4FF122178E4FF12217822E6
:10000E0074F8CC6480CCC86480C8F58204604FC399
:10001E00EB9FF5F0EA9E42F0E99D42F0E89C45F038
:10002E00603C501DE5825FFFE582D313CB5BCBF4C2
:10003E002B5582FB50280ABA002409B900200880EB
:10004E001DE5825BFBE582D313CF5FCFF4C3132F85
:10005E005582FF50090EBE00050DBD00010CC3EB0D
:10006E009FF5F0EA9E42F0E99D42F0E89C45F06073
:09007E0007CC4820E701B3EC2295
:1000870075F020800E75F010800575F0087D007EF4
:10009700007F003392D530D503120742EC3340106E
:1000A700EF33FFEE33FEED33FDEC33FCD5F0ED22FD
:0E00B700E5F0247EA2D513CC92E7CDCEFF2239
:100F6300E5082415F582E43400F583E005082290B2
:100F73000012300703900015E475F00112076D02AB
:100F8300068C2000E97F2ED2008018EF540F2490A6
:100F9300D43440D4FF30040BEF24BFB41A00500301
:100FA3002461FFE50960021509050CE50C700205D3
:100FB3000B30070E900012E475F00112076DEF027B
:100FC30006D20220CC7403D2078003E4C207F508DB
:100FD300900012120784E4F509F50BF50CE509609E
:100FE300077F20120FA680F5750AFFC201C200C257
:100FF30002C203C205C206C208120F72FF700D308F
:1010030007057F00120FB7AF0CAE0B22B4255FC2EA
:10101300D5C204120F72FF24D0B40A00501A75F01F
:101023000A780930D50508B6FF0106C6A426F620BE
:10103300D5047002D20380D924CFB41A00EF500430
:10104300C2E5D2040212A9D20180C6D20080C0D266
:101053000280BCD2D580BAD20580B47F20120FA6FD
:101063002002077401B5090040F1120F63FF120F4C
:10107300A6020FE0D208D2068095120F63FB120F6F
:1010830063FA120F63F94A4B700679A77A137BFF51
:1010930020022EE509602A7E008E827583001206E7
:1010A300A560060EEE650A70F0C2D5EBC0E0EAC09B
:1010B300E0E9C0E0EE12130AD0E0F9D0E0FAD0E0A4
:1010C300FB12068CFF60AAEBC0E0EAC0E0E9C0E0D7
:1010D300120FA6D0E02401F9D0E03400FAD0E0FBEF
:1010E300E50A0460DCD50AD98087D20280A21212F5
:1010F300EC60F7E50A7001041201F4A90A600DE53A
:101103000A600914F50A121394EF60F3EA30E70258
:10111300F404C3995079EAF4250A0430E701E4049E
:10112300F50A800D1212EC60C1EA050A250A1201C4
:10113300F4EA900041F030E701E4250A04D50A04FB
:101143002005011412130AE4C0E012139490004125
:10115300E0601320E70714F0120F8E802204F0D012
:10116300E014C0E07F00120F8EE50A6007120F85BE
:10117300150A800B300503120F85D0E0020FE0D073
:10118300E00480C41212EC609EE50A041201F4909C
:101193000041EAF0E50A2005026001042404121369
:0111A3000A41
:1011A40074FF04C0E0121394120F8EE50A200502A6
:1011B4006003120F85D0E0B50AE87F45120F9890BE
:1011C4000041E07F2B30E7047F2DF404C0E0120FD0
:1011D400A6D0E075F00A84C0F0120F8FD0E0120F91
:1011E4008F020FE0791080027908C206C2088008D5
:1011F400D2D5790A8004790AC2D5E50A047002F5C9
:101204000AE4FAFDFEFF120F63FC7B0820011312AF
:101214000F63FD7B1030000A120F63FE120F63FF91
:101224007B20EC3382D592D55013C3E43000069F63
:10123400FFE49EFEE42001039DFDE49CFCE4CBF866
:10124400C201EC700CCFCECDCCE824F8F870F3805A
:1012540017C3EF33FFEE33FEED33FDEC33FCEB331A
:10126400FB994002FB0FD8E9EB300105F8D0E0C44C
:1012740048B201C0E00AEC4D4E4F78207B0070C2AA
:10128400EAB50A0040BCC0E012130CD0F0D0E02054
:101294000104C4C0E0C4B201C0F0120F8FD0F0D575
:1012A400F0EB020FE012078D107D5311E858104E39
:1012B4004C104A4211EC4F11F44411F449106343A9
:1012C40011FA5511274611874510F14713C75010DD
:1012D400522D10562E10792B105A2310772013B04C
:1012E4002A10124800001071E50AB4FF03750A06BB
:1012F400120F63FC120F63FD120F63FE120F63FFE4
:1013040090003A020231790AA2D52003143005096B
:10131400B910020404B9080104A2D5200602500140
:10132400042002689202B509005034C0E07F2030E6
:1013340003197F30A20272067205500F121363C2A2
:1013440002C206C205C2087F30800F300503E9C01F
:10135400E0120FA6300503D0E0F9D0E0B509CC3097
:1013640005177F30B9100C120FA67F583004077F81
:10137400788003B90803120FA63002057F2D020FEF
:10138400A67F202008F87F2B2006F322920280CF2C
:101394007F00B40700500B243AF582E43400F5834F
:1013A400E0FF22286E756C6C2900D201120F6330A5
:1013B40001F8C201780930D50108F60210122D5047
:1013C400434958120F632403B405004001E4901309
:1013D400C293120F97743A120F97D203750904023D
:0213E40011E80E
:1019970090000C12076174FFFFFEFDFC90000CE045
:1019A700F8A3E0F9A3E0FAA3E0FBC31207506038FD
:1019B7007F807E967D187C4B90000CE0F8A3E0F9C1
:1019C700A3E0FAA3E0FB12000E6002501B7F807EAB
:1019D700967D187CCB90000CE0F8A3E0F9A3E0FA21
:1019E700A3E0FB12000E500F90000CE0FCA3E0FDFB
:1019F700A3E0FEA3E0FF2290000CE0FCA3E0FDA320
:101A0700E0FEA3E0FF1201BD9000101207619000F5
:101A170010E0FCA3E0FDA3E0FEA3E0FFEC120087CB
:101A2700C8ECC8C9EDC9CAEECACBEFCB90000CE031
:101A3700FCA3E0FDA3E0FEA3E0FF1200C8E4FBFA6D
:101A4700F9F812000E60264024900010E0FCA3E095
:101A5700FDA3E0FEA3E0FFEF24FFFFEE34FFFEED62
:101A670034FFFDEC34FFFC9000101207619000106A
:101A7700E0FCA3E0FDA3E0FEA3E0FFEC1200872259
:1000C50002036BE86480F8E933E83360110460F0FB
:1000D500ED33EC337009E8FCE9FDEAFEEBFF2204A1
:1000E50060DED3EB9FEA9EE99DE8C2E78CF0C2F79C
:1000F50095F0400CE8CCF8E9CDF9EACEFAEBCFFB68
:1001050012033685D0F05804700320D5B3E8047087
:10011500075002B2D502037592D5EC0460F7E4CC22
:10012500C0E0C398F8603B94186008400DD0E0FB30
:1001350002034DE4FBFAC9FC8028E830E406E4C973
:10014500FBE4CAFCE830E305E4C9CACBFCE8540784
:100155006010F8C3E913F9EA13FAEB13FBEC13FC8F
:10016500D8F130F52FC3E49CFCEF9BFFEE9AFEED32
:1001750099FDD0E0FBEF4E4D4C701222DB030203DC
:1001850072EC2CFCEF33FFEE33FEED33FDED30E783
:10019500EB02034DEF2BFFEE3AFEED39FDD0E0FB10
:1001A50050130BBB0003020375ED13FDEE13FEEFB9
:0801B50013FFEC13FC02034DE3
:1001BD00EDD2E7CD33EC3392D524814006E4FFFE3A
:1001CD00FDFC22FCE4CFCECDCC24E0501174FF8099
:1001DD00EDC3CC13CCCD13CDCE13CECF13CF047036
:0701ED00F030D5DE020742ED
:1001F400F920E73624F950037907E4F42402FBE5F7
:1002040082158270021583DBF6E024FB501BE96043
:1002140014E4F0E582158270021583E004F0B40A58
:0D02240008E4F0D9EE7401F00A22C2D522E0
:10023100ED33EC3392D5FA602AB4FF33EDC2E77B9C
:10024100FF60067A027956E4227A02795F20D504AA
:100251007A02795A224E614E002B494E46002D49B1
:100261004E4600E47A08F0A3DAFC7B00740722C052
:1002710083C082ECC0E0EDC0E0EEC0E0EFC0E0EA98
:1002810075F010A4CAABF075F04DA42BFBE435F06A
:10029100FCEA2410FAEB34C5FBEC34D9FCEDC2E7DF
:1002A100FF75F056A4F42411C5F0F434C58FF0A401
:1002B1002AE5F03BE43CF020E714120556D0E0FFBC
:1002C100D0E0FED0E0FDD0E0FC1204898014F404FB
:1002D100120556D0E0FFD0E0FED0E0FDD0E0FC12E8
:1002E1000380D082D083E0FAEDD2E7CD33EC332422
:1002F10082FBE4C3CF33CFCE33CECD33CD33DBF36B
:100301007B0775F00A846004F0A31B0AE5F0F0A3F3
:100311008FF0740AA4FFACF08EF0740AA42CFEAC2A
:10032100F050010C8DF0740AA42CFDE435F0F0A31B
:05033100DBDE74072271
:10033600E9D2E7C933E833F892D5EDD2E7CD33EC0D
:0703460033FC5002B2D52286
:10034D00EC30E7100FBF000C0EBE00080DBD000411
:10035D000BEB6014A2D5EB13FCED92E7FD2274FFBD
:10036D00FCFDFEFF22E480F8A2D574FF13FC7D8016
:03037D00E480EF2A
:10038000EC4D6011E8497017ED33EC3304600DE477
:10039000FCFFFEFD22E933E8330470F802036B1220
:1003A000033658046009E4CC248150062850090221
:1003B0000375284003020372C0E0EB4A7044B98021
:1003C00006D0E0FB020361EF4E701CBD8008EBFF1E
:1003D000EAFEE9FD80EBE98DF0A4FEE5F002046998
:1003E000E9CDF9EAFEEBFFEF89F0A4FCE5F0CE8958
:1003F000F0A42EFFE435F0CD89F0A42DFEE435F015
:100400008067EF4E7005BD80D780C3EF8BF0A4AC42
:10041000F0EE8BF0A42CFCE435F0F8EF8AF0A42C7D
:10042000E5F038FCE433CB8DF0A42CFCE5F03BF890
:10043000EE8AF0A42CFCE5F038F8E433CF89F0A480
:100440002CFCE5F038CF3400CE89F0A42FFFE5F086
:100450003EFEE433C98DF0A42EFEE5F039CD8AF0DE
:10046000A42FFFE5F03EFEE43DFD33D0E0FB500756
:100470000BBB000F020375EC2CFCEF33FFEE33FED9
:06048000ED33FD02034D07
:10048600020375EC5D046005E85904700302036B12
:10049600120336580460F6EC4860F2EC7004FDFE78
:1004A600FF22C860DB2481C85009C3986002500649
:1004B6000203729850CAF582E9294B4A7005AB824D
:1004C60002036175F0007C1A7880C3EF9BEE9AED0B
:1004D60099400DC3EF9BFFEE9AFEED99FDE842F0C1
:1004E600DC23ACF0D0E0FFD0E0FED0E0FDAB822014
:1004F600E7101BEB60BAEC2CFCEF33FFEE33FEED9E
:1005060033FD02034DE803F830E705C0F075F0004F
:10051600EF2FFFEE33FEED33FD40B830E7C280AA81
:100526003F8000004120000042C80000447A0000DD
:10053600461C400047C35000497424004B1896805F
:100546004CBEBC205A0E1BCA6753C21C749DC5AE56
:10055600FB60065407601C2323120584EB543860A5
:100566000912057012057F120380ECF8EDF9EEFA18
:10057600EFCB22EB12057F80F1543803241C900543
:1005860026FE93FC0EEE93FD0EEE930ECE93FF2207
:101DD6000221A8E493A3F8E493A34003F68001F25A
:101DE60008DFF48029E493A3F85407240CC8C3330E
:101DF600C4540F4420C8834004F456800146F6DFDD
:101E0600E4800B01020408102040809020A5E47EA7
:101E1600019360BCA3FF543F30E509541FFEE493D1
:101E2600A360010ECF54C025E060A840B8E493A398
:101E3600FAE493A3F8E493A3C8C582C8CAC583CAC3
:101E4600F0A3C8C582C8CAC583CADFE9DEE780BE7B
:0120CB000014
:10059600E709F608DFFA8046E709F208DFFA803E47
:1005A60088828C83E709F0A3DFFA8032E309F60834
:1005B600DFFA8078E309F208DFFA807088828C839C
:1005C600E309F0A3DFFA806489828A83E0A3F60850
:1005D600DFFA805889828A83E0A3F208DFFA804C2A
:1005E60080D280FA80C680D4806980F28033801001
:1005F60080A680EA809A80A880DA80E280CA80336A
:1006060089828A83ECFAE493A3C8C582C8CCC583E1
:10061600CCF0A3C8C582C8CCC583CCDFE9DEE780B1
:100626000D89828A83E493A3F608DFF9ECFAA9F030
:10063600EDFB2289828A83ECFAE0A3C8C582C8CC86
:10064600C583CCF0A3C8C582C8CCC583CCDFEADE9F
:10065600E880DB89828A83E493A3F208DFF980CC01
:1006660088F0EF60010E4E60C388F0ED2402B404FA
:100676000050B9F582EB2402B4040050AF232345A1
:0606860082239005E673DB
:10068C00BB010689828A83E0225002E722BBFE026C
:09069C00E32289828A83E493229F
:1006A500BB010CE58229F582E5833AF583E022500A
:1006B50006E92582F8E622BBFE06E92582F8E22254
:0D06C500E58229F582E5833AF583E493226E
:1006D200BB010689828A83F0225002F722BBFE0107
:0206E200F32201
:1006E400EF8DF0A4A8F0CF8CF0A428CE8DF0A42E2A
:0206F400FE22E4
:1006F600C2D5EC30E709B2D5E4C39DFDE49CFCEE1F
:1007060030E715B2D5E4C39FFFE49EFE1207B3C3DC
:10071600E49DFDE49CFC80031207B330D507C3E4D7
:060726009FFFE49EFE228D
:10072C00A3F8E0C5F025F0F0E58215827002158380
:06073C00E0C838F0E822DD
:0E074200C3E49FFFE49EFEE49DFDE49CFC22C8
:10075000EB9FF5F0EA9E42F0E99D42F0E89C45F0FF
:010760002276
:0C076100ECF0A3EDF0A3EEF0A3EFF0220B
:10076D00F8E0FBA3A3E0F925F0F0E5821582700215
:07077D001583E0FA38F022B9
:09078400EBF0A3EAF0A3E9F02276
:10078D00D083D082F8E4937012740193700DA3A3FB
:10079D0093F8740193F5828883E47374029368600F
:0607AD00EFA3A3A380DF0F
:1020CC00EFB40A07740D1220D7740A309811A8992E
:1020DC00B8130CC2983098FDA899C298B811F63074
:0720EC0099FDC299F599224C
:101F130090008F1208087810EC4D4E4F70047CA58A
:101F23007DA5C3EC13FCED13FDEE13FEEF13FF5081
:101F330010EC64CCFCED644CFDEE644EFEEF64CE1D
:101F4300FFD8DF90008F120761EE547FFE229000CE
:0D1F53008FEEF0EFA3F0A374A5F0A3F02231
:1007B300BC000BBE0029EF8DF084FFADF022E4CC2A
:1007C300F875F008EF2FFFEE33FEEC33FCEE9DECF3
:1007D300984005FCEE9DFE0FD5F0E9E4CEFD22ED39
:1007E300F8F5F0EE8420D21CFEADF075F008EF2F83
:1007F300FFED33FD4007985006D5F0F222C398FD74
:050803000FD5F0EA2210
:0C080800E0FCA3E0FDA3E0FEA3E0FF2263
:00000001FF
